{
  "address": "0x39fF0a56946da46470D73c5D34c9BaF4DcfB8625",
  "abi": [
    {
      "inputs": [
        {
          "internalType": "address",
          "name": "vrfCoordinatorV2",
          "type": "address"
        },
        {
          "internalType": "uint64",
          "name": "subscriptionId",
          "type": "uint64"
        },
        {
          "internalType": "bytes32",
          "name": "gasLane",
          "type": "bytes32"
        },
        {
          "internalType": "uint32",
          "name": "callbackGasLimit",
          "type": "uint32"
        }
      ],
      "stateMutability": "nonpayable",
      "type": "constructor"
    },
    {
      "inputs": [
        {
          "internalType": "address",
          "name": "have",
          "type": "address"
        },
        {
          "internalType": "address",
          "name": "want",
          "type": "address"
        }
      ],
      "name": "OnlyCoordinatorCanFulfill",
      "type": "error"
    },
    {
      "inputs": [
        {
          "internalType": "bytes",
          "name": "",
          "type": "bytes"
        }
      ],
      "name": "checkUpkeep",
      "outputs": [
        {
          "internalType": "bool",
          "name": "upkeepNeeded",
          "type": "bool"
        },
        {
          "internalType": "bytes",
          "name": "performData",
          "type": "bytes"
        }
      ],
      "stateMutability": "view",
      "type": "function"
    },
    {
      "inputs": [
        {
          "internalType": "string",
          "name": "baseUri",
          "type": "string"
        },
        {
          "internalType": "uint256",
          "name": "minMembers",
          "type": "uint256"
        },
        {
          "internalType": "uint256",
          "name": "requestTime",
          "type": "uint256"
        },
        {
          "internalType": "uint256",
          "name": "validity",
          "type": "uint256"
        },
        {
          "internalType": "uint256",
          "name": "claimTime",
          "type": "uint256"
        },
        {
          "internalType": "uint256",
          "name": "judgingTime",
          "type": "uint256"
        },
        {
          "internalType": "uint256",
          "name": "judgesLength",
          "type": "uint256"
        },
        {
          "internalType": "uint256",
          "name": "amount",
          "type": "uint256"
        },
        {
          "internalType": "uint256",
          "name": "percentDivideIntoJudges",
          "type": "uint256"
        }
      ],
      "name": "createInsurance",
      "outputs": [
        {
          "internalType": "address",
          "name": "",
          "type": "address"
        }
      ],
      "stateMutability": "payable",
      "type": "function"
    },
    {
      "inputs": [
        {
          "internalType": "uint256",
          "name": "index",
          "type": "uint256"
        }
      ],
      "name": "getContract",
      "outputs": [
        {
          "components": [
            {
              "internalType": "address",
              "name": "contractAddress",
              "type": "address"
            },
            {
              "internalType": "uint256",
              "name": "judgingStartTime",
              "type": "uint256"
            },
            {
              "internalType": "uint256",
              "name": "judgingEndTime",
              "type": "uint256"
            }
          ],
          "internalType": "struct Burfy.ContractInfo",
          "name": "",
          "type": "tuple"
        }
      ],
      "stateMutability": "view",
      "type": "function"
    },
    {
      "inputs": [],
      "name": "getContracts",
      "outputs": [
        {
          "components": [
            {
              "internalType": "address",
              "name": "contractAddress",
              "type": "address"
            },
            {
              "internalType": "uint256",
              "name": "judgingStartTime",
              "type": "uint256"
            },
            {
              "internalType": "uint256",
              "name": "judgingEndTime",
              "type": "uint256"
            }
          ],
          "internalType": "struct Burfy.ContractInfo[]",
          "name": "",
          "type": "tuple[]"
        }
      ],
      "stateMutability": "view",
      "type": "function"
    },
    {
      "inputs": [],
      "name": "getContractsLength",
      "outputs": [
        {
          "internalType": "uint256",
          "name": "",
          "type": "uint256"
        }
      ],
      "stateMutability": "view",
      "type": "function"
    },
    {
      "inputs": [
        {
          "internalType": "address",
          "name": "contractAddress",
          "type": "address"
        }
      ],
      "name": "getRandomNumbers",
      "outputs": [
        {
          "internalType": "uint256",
          "name": "requestId",
          "type": "uint256"
        }
      ],
      "stateMutability": "payable",
      "type": "function"
    },
    {
      "inputs": [
        {
          "internalType": "bytes",
          "name": "performData",
          "type": "bytes"
        }
      ],
      "name": "performUpkeep",
      "outputs": [],
      "stateMutability": "nonpayable",
      "type": "function"
    },
    {
      "inputs": [
        {
          "internalType": "uint256",
          "name": "requestId",
          "type": "uint256"
        },
        {
          "internalType": "uint256[]",
          "name": "randomWords",
          "type": "uint256[]"
        }
      ],
      "name": "rawFulfillRandomWords",
      "outputs": [],
      "stateMutability": "nonpayable",
      "type": "function"
    }
  ],
  "transactionHash": "0xedfc251aae3317bc4bf3aacbe292d266899105544751fc81cb0be196fd324b8f",
  "args": [
    "0xbd13f08b8352a3635218ab9418e340c60d6eb418",
    "119",
    "0x121a143066e0f2f08b620784af77cccb35c6242460b4a8ee251b4b416abaebd4",
    "500000"
  ],
  "numDeployments": 6,
  "solcInputHash": "fe13675e2aa7378dd2187bcbd5f04152",
  "bytecode": "0x61012060405234801561001157600080fd5b506040516148b23803806148b283398101604081905261003091610061565b6001600160a01b03909316608081905260a05260e0526001600160401b031660c05263ffffffff16610100526100d7565b6000806000806080858703121561007757600080fd5b84516001600160a01b038116811461008e57600080fd5b60208601519094506001600160401b03811681146100ab57600080fd5b60408601516060870151919450925063ffffffff811681146100cc57600080fd5b939692955090935050565b60805160a05160c05160e0516101005161479061012260003960006107680152600061070701526000610735015260006107990152600081816101d6015261021901526147906000f3fe608060405260043610620000745760003560e01c80631fe543e314620000795780634585e33b14620000a05780636e04ff0d14620000c55780636ebc8c86146200010357806380b897a01462000137578063ba6731c01462000167578063c3a2a93a146200018d578063fccc134f14620001b4575b600080fd5b3480156200008657600080fd5b506200009e62000098366004620009b3565b620001cb565b005b348015620000ad57600080fd5b506200009e620000bf36600462000a6f565b6200025a565b348015620000d257600080fd5b50620000ea620000e436600462000a6f565b62000387565b604051620000fa92919062000b35565b60405180910390f35b3480156200011057600080fd5b50620001286200012236600462000b5a565b62000515565b604051620000fa919062000b96565b6200014e6200014836600462000bac565b620005a2565b6040516001600160a01b039091168152602001620000fa565b6200017e6200017836600462000c8d565b620006f8565b604051908152602001620000fa565b3480156200019a57600080fd5b50620001a562000842565b604051620000fa919062000cbf565b348015620001c157600080fd5b506001546200017e565b336001600160a01b037f000000000000000000000000000000000000000000000000000000000000000016146200024a5760405163073e64fd60e21b81523360048201526001600160a01b037f000000000000000000000000000000000000000000000000000000000000000016602482015260440160405180910390fd5b620002568282620008c6565b5050565b6000806200026b8385018562000d11565b9150915060006001838154811062000287576200028762000d34565b60009182526020909120600390910201546001600160a01b0316905081620002e957600060018481548110620002c157620002c162000d34565b906000526020600020906003020160010181905550620002e181620006f8565b505050505050565b60018381548110620002ff57620002ff62000d34565b60009182526020822060039091020180546001600160a01b031916815560018101829055600201819055604080516305bbfb2560e31b815290516001600160a01b03841692632ddfd928926004808201939182900301818387803b1580156200036757600080fd5b505af11580156200037c573d6000803e3d6000fd5b505050505050505050565b60006060815b6001548110156200050d5760018181548110620003ae57620003ae62000d34565b906000526020600020906003020160010154600014158015620003f757504260018281548110620003e357620003e362000d34565b906000526020600020906003020160010154105b80156200042a5750426001828154811062000416576200041662000d34565b906000526020600020906003020160020154115b1562000463576040805160208101839052600091810191909152600193506060015b60405160208183030381529060405291506200050d565b60006001600160a01b03166001828154811062000484576200048462000d34565b60009182526020909120600390910201546001600160a01b031614801590620004d357504260018281548110620004bf57620004bf62000d34565b906000526020600020906003020160020154105b15620004f857604080516020810183905260019181018290529093506060016200044c565b80620005048162000d60565b9150506200038d565b509250929050565b62000543604051806060016040528060006001600160a01b0316815260200160008152602001600081525090565b6001828154811062000559576200055962000d34565b600091825260209182902060408051606081018252600390930290910180546001600160a01b031683526001810154938301939093526002909201549181019190915292915050565b6000808a8a8a8a8a8a8a8a8a604051620005bc906200095c565b620005d09998979695949392919062000d7e565b604051809103906000f080158015620005ed573d6000803e3d6000fd5b50905060008789620006008c4262000dd4565b6200060c919062000dd4565b62000618919062000dd4565b9050600062000628888362000dd4565b604080516060810182526001600160a01b0386811682526020820195865291810192835260018054808201825560009190915290517fb10e2d527612073b26eecdfd717e6a320cf44b4afac2b0732d9fcbe2b7fa0cf6600390920291820180546001600160a01b031916919093161790915592517fb10e2d527612073b26eecdfd717e6a320cf44b4afac2b0732d9fcbe2b7fa0cf7840155517fb10e2d527612073b26eecdfd717e6a320cf44b4afac2b0732d9fcbe2b7fa0cf890920191909155509a9950505050505050505050565b6040516305d3b1d360e41b81527f000000000000000000000000000000000000000000000000000000000000000060048201526001600160401b037f00000000000000000000000000000000000000000000000000000000000000001660248201526003604482015263ffffffff7f0000000000000000000000000000000000000000000000000000000000000000166064820152600160848201526000907f00000000000000000000000000000000000000000000000000000000000000006001600160a01b031690635d3b1d309060a4016020604051808303816000875af1158015620007eb573d6000803e3d6000fd5b505050506040513d601f19601f8201168201806040525081019062000811919062000def565b600081815260208190526040902080546001600160a01b0319166001600160a01b0394909416939093179092555090565b60606001805480602002602001604051908101604052809291908181526020016000905b82821015620008bd576000848152602090819020604080516060810182526003860290920180546001600160a01b031683526001808201548486015260029091015491830191909152908352909201910162000866565b50505050905090565b60008281526020819052604081205482516001600160a01b03909116918291631a9d7879918591620008fc57620008fc62000d34565b60200260200101516040518263ffffffff1660e01b81526004016200092391815260200190565b600060405180830381600087803b1580156200093e57600080fd5b505af115801562000953573d6000803e3d6000fd5b50505050505050565b6139518062000e0a83390190565b634e487b7160e01b600052604160045260246000fd5b604051601f8201601f191681016001600160401b0381118282101715620009ab57620009ab6200096a565b604052919050565b60008060408385031215620009c757600080fd5b823591506020808401356001600160401b0380821115620009e757600080fd5b818601915086601f830112620009fc57600080fd5b81358181111562000a115762000a116200096a565b8060051b915062000a2484830162000980565b818152918301840191848101908984111562000a3f57600080fd5b938501935b8385101562000a5f5784358252938501939085019062000a44565b8096505050505050509250929050565b6000806020838503121562000a8357600080fd5b82356001600160401b038082111562000a9b57600080fd5b818501915085601f83011262000ab057600080fd5b81358181111562000ac057600080fd5b86602082850101111562000ad357600080fd5b60209290920196919550909350505050565b6000815180845260005b8181101562000b0d5760208185018101518683018201520162000aef565b8181111562000b20576000602083870101525b50601f01601f19169290920160200192915050565b821515815260406020820152600062000b52604083018462000ae5565b949350505050565b60006020828403121562000b6d57600080fd5b5035919050565b80516001600160a01b0316825260208082015190830152604090810151910152565b6060810162000ba6828462000b74565b92915050565b60008060008060008060008060006101208a8c03121562000bcc57600080fd5b89356001600160401b038082111562000be457600080fd5b818c0191508c601f83011262000bf957600080fd5b813560208282111562000c105762000c106200096a565b62000c24601f8301601f1916820162000980565b92508183528e8183860101111562000c3b57600080fd5b81818501828501376000918301810191909152909d908c01359c5060408c01359b60608101359b5060808101359a5060a0810135995060c0810135985060e08101359750610100013595509350505050565b60006020828403121562000ca057600080fd5b81356001600160a01b038116811462000cb857600080fd5b9392505050565b6020808252825182820181905260009190848201906040850190845b8181101562000d055762000cf183855162000b74565b928401926060929092019160010162000cdb565b50909695505050505050565b6000806040838503121562000d2557600080fd5b50508035926020909101359150565b634e487b7160e01b600052603260045260246000fd5b634e487b7160e01b600052601160045260246000fd5b600060001982141562000d775762000d7762000d4a565b5060010190565b600061012080835262000d948184018d62000ae5565b602084019b909b52505060408101979097526060870195909552608086019390935260a085019190915260c084015260e083015261010090910152919050565b6000821982111562000dea5762000dea62000d4a565b500190565b60006020828403121562000e0257600080fd5b505191905056fe610180604052600160065560016009556001600d553480156200002157600080fd5b506040516200395138038062003951833981016040819052620000449162000655565b6200004f3362000549565b60008811620000cb5760405162461bcd60e51b815260206004820152603360248201527f4275726679496e737572616e63653a206d696e4d656d626572732073686f756c60448201527f642062652067726561746572207468616e20300000000000000000000000000060648201526084015b60405180910390fd5b60008711620001435760405162461bcd60e51b815260206004820152603460248201527f4275726679496e737572616e63653a207265717565737454696d652073686f7560448201527f6c642062652067726561746572207468616e20300000000000000000000000006064820152608401620000c2565b60008611620001af5760405162461bcd60e51b815260206004820152603160248201527f4275726679496e737572616e63653a2076616c69646974792073686f756c6420604482015270062652067726561746572207468616e203607c1b6064820152608401620000c2565b60008511620002275760405162461bcd60e51b815260206004820152603960248201527f4275726679496e737572616e63653a206a756467696e67537461727454696d6560448201527f2073686f756c642062652067726561746572207468616e2030000000000000006064820152608401620000c2565b600084116200029f5760405162461bcd60e51b815260206004820152603460248201527f4275726679496e737572616e63653a206a756467696e6754696d652073686f7560448201527f6c642062652067726561746572207468616e20300000000000000000000000006064820152608401620000c2565b60008311620003065760405162461bcd60e51b815260206004820152603560248201526000805160206200391183398151915260448201527f756c642062652067726561746572207468616e203000000000000000000000006064820152608401620000c2565b878311156200037d5760405162461bcd60e51b815260206004820152604760248201526000805160206200391183398151915260448201527f756c64206265206c657373207468616e206f7220657175616c20746f206d696e6064820152664d656d6265727360c81b608482015260a401620000c2565b60008211620003e75760405162461bcd60e51b815260206004820152602f60248201527f4275726679496e737572616e63653a20616d6f756e742073686f756c6420626560448201526e02067726561746572207468616e203608c1b6064820152608401620000c2565b6000811162000450576040805162461bcd60e51b81526020600482015260248101919091526000805160206200393183398151915260448201527f6f4a75646765732073686f756c642062652067726561746572207468616e20306064820152608401620000c2565b6064811115620004cc5760405162461bcd60e51b815260206004820152604b60248201526000805160206200393183398151915260448201527f6f4a75646765732073686f756c64206265206c657373207468616e206f72206560648201526a07175616c20746f203130360ac1b608482015260a401620000c2565b8851620004e19060019060208c019062000599565b506080889052620004f3874262000782565b60a08190526200050590879062000782565b60c08190526200051790869062000782565b60e08190526200052990859062000782565b6101005261012092909252610140526101605250620007e6945050505050565b600080546001600160a01b038381166001600160a01b0319831681178455604051919092169283917f8be0079c531659141344cd1fd0a4f28419497f9722a3daafe3b4186f6b6457e09190a35050565b828054620005a790620007a9565b90600052602060002090601f016020900481019282620005cb576000855562000616565b82601f10620005e657805160ff191683800117855562000616565b8280016001018555821562000616579182015b8281111562000616578251825591602001919060010190620005f9565b506200062492915062000628565b5090565b5b8082111562000624576000815560010162000629565b634e487b7160e01b600052604160045260246000fd5b60008060008060008060008060006101208a8c0312156200067557600080fd5b89516001600160401b03808211156200068d57600080fd5b818c0191508c601f830112620006a257600080fd5b815181811115620006b757620006b76200063f565b604051601f8201601f19908116603f01168101908382118183101715620006e257620006e26200063f565b81604052828152602093508f84848701011115620006ff57600080fd5b600091505b8282101562000723578482018401518183018501529083019062000704565b82821115620007355760008484830101525b809d50505050808c01519950505060408a0151965060608a0151955060808a0151945060a08a0151935060c08a0151925060e08a015191506101008a015190509295985092959850929598565b60008219821115620007a457634e487b7160e01b600052601160045260246000fd5b500190565b600181811c90821680620007be57607f821691505b60208210811415620007e057634e487b7160e01b600052602260045260246000fd5b50919050565b60805160a05160c05160e0516101005161012051610140516101605161301d620008f46000396000818161071201526113470152600081816107e701528181610b4401528181610e02015281816110e10152818161125e015281816113260152818161139d0152611c320152600081816102fd01528181610bbe015281816111380152818161123d01526114af01526000818161050501528181610a3101528181610fb801526123aa015260008181610367015281816109e9015281816121c3015261236b01526000818161045a015261215401526000818161039a01528181610d3f01528181611a460152611c9d01526000818161064701528181610acb0152612819015261301d6000f3fe6080604052600436106102185760003560e01c8063071694fb1461021d5780630a4b5162146102525780630cac36b21461029657806313284cdd146102b8578063134fe304146102ee57806316daa23b146103215780631a9d7879146103365780631e1e949914610358578063201095b71461038b57806321e3ca5d146103be578063253ecfcf146103d357806326757b73146104095780632ddfd928146104365780633b7f7cfa1461044b5780633ccfd60b1461047e5780633e035c78146104935780633f952091146104e15780634340b213146104f65780634c6ee382146105295780635ee8906d1461053c57806365b21d14146105515780636f80886c1461057e578063715018a6146105b45780637248f579146105c957806379ee10b0146105eb5780637d4b1a5f146106035780638170aff0146106185780638618e9d3146106385780638c9a92a21461066b5780638da5cb5b146106835780638f18030514610698578063a095f2b4146106ad578063b0118f4a1461066b578063b035d6e1146106cd578063b7e44ba414610703578063bfbdef7e14610736578063c4677c041461074b578063c864b70e14610760578063cf1dd2b414610780578063cfdd1ce3146107a2578063d321fe29146107d8578063e12c2d911461080b578063e57384db14610838578063ed3ee1de14610855578063f0e22d521461086a578063f2fde38b1461087f578063f8b2cb4f1461089f575b600080fd5b34801561022957600080fd5b5061023d610238366004612a16565b6108d5565b60405190151581526020015b60405180910390f35b34801561025e57600080fd5b5061028861026d366004612a38565b6001600160a01b031660009081526013602052604090205490565b604051908152602001610249565b3480156102a257600080fd5b506102ab610937565b6040516102499190612ac0565b3480156102c457600080fd5b506102886102d3366004612a38565b6001600160a01b031660009081526010602052604090205490565b3480156102fa57600080fd5b507f0000000000000000000000000000000000000000000000000000000000000000610288565b34801561032d57600080fd5b506102886109c9565b34801561034257600080fd5b50610356610351366004612ad3565b6109df565b005b34801561036457600080fd5b507f0000000000000000000000000000000000000000000000000000000000000000610288565b34801561039757600080fd5b507f0000000000000000000000000000000000000000000000000000000000000000610288565b3480156103ca57600080fd5b50610356610cf4565b3480156103df57600080fd5b506102886103ee366004612a38565b6001600160a01b03166000908152600e602052604090205490565b34801561041557600080fd5b50610429610424366004612ad3565b610eba565b6040516102499190612aec565b34801561044257600080fd5b50610356610fb6565b34801561045757600080fd5b507f0000000000000000000000000000000000000000000000000000000000000000610288565b34801561048a57600080fd5b5061035661197f565b34801561049f57600080fd5b506104c96104ae366004612ad3565b6000908152601160205260409020546001600160a01b031690565b6040516001600160a01b039091168152602001610249565b3480156104ed57600080fd5b50610356611a44565b34801561050257600080fd5b507f0000000000000000000000000000000000000000000000000000000000000000610288565b610356610537366004612bd2565b611c30565b34801561054857600080fd5b50601554610288565b34801561055d57600080fd5b5061057161056c366004612ad3565b611e0e565b6040516102499190612c0e565b34801561058a57600080fd5b506104c9610599366004612ad3565b6000908152600760205260409020546001600160a01b031690565b3480156105c057600080fd5b50610356611f1b565b3480156105d557600080fd5b506105de611f2f565b6040516102499190612c5c565b3480156105f757600080fd5b5060055460ff1661023d565b34801561060f57600080fd5b50600454610288565b34801561062457600080fd5b50610356610633366004612ad3565b611fa2565b34801561064457600080fd5b507f0000000000000000000000000000000000000000000000000000000000000000610288565b34801561067757600080fd5b5060025460ff1661023d565b34801561068f57600080fd5b506104c9612132565b3480156106a457600080fd5b50610288612141565b3480156106b957600080fd5b506103566106c8366004612cb3565b612152565b3480156106d957600080fd5b506102886106e8366004612a38565b6001600160a01b03166000908152600a602052604090205490565b34801561070f57600080fd5b507f0000000000000000000000000000000000000000000000000000000000000000610288565b34801561074257600080fd5b50600354610288565b34801561075757600080fd5b50601454610288565b34801561076c57600080fd5b5061035661077b366004612cf7565b612369565b34801561078c57600080fd5b5061079561268f565b6040516102499190612d54565b3480156107ae57600080fd5b506102886107bd366004612a38565b6001600160a01b031660009081526008602052604090205490565b3480156107e457600080fd5b507f0000000000000000000000000000000000000000000000000000000000000000610288565b34801561081757600080fd5b5061082b610826366004612a16565b6126f8565b6040516102499190612d9e565b34801561084457600080fd5b50600254610100900460ff1661023d565b34801561086157600080fd5b5061023d612815565b34801561087657600080fd5b50610288612847565b34801561088b57600080fd5b5061035661089a366004612a38565b612858565b3480156108ab57600080fd5b506102886108ba366004612a38565b6001600160a01b031660009081526016602052604090205490565b6000828152600760209081526040808320549051600c92610902926001600160a01b031691869101612dc5565b60408051601f198184030181529082905261091c91612dde565b9081526040519081900360200190205460ff16905092915050565b60606001805461094690612dfa565b80601f016020809104026020016040519081016040528092919081815260200182805461097290612dfa565b80156109bf5780601f10610994576101008083540402835291602001916109bf565b820191906000526020600020905b8154815290600101906020018083116109a257829003601f168201915b5050505050905090565b60006001600d546109da9190612e4b565b905090565b6109e76128ce565b7f00000000000000000000000000000000000000000000000000000000000000004211610a2f5760405162461bcd60e51b8152600401610a2690612e62565b60405180910390fd5b7f00000000000000000000000000000000000000000000000000000000000000004210610a6e5760405162461bcd60e51b8152600401610a2690612e93565b60025460ff1615610abb5760405162461bcd60e51b8152602060048201526017602482015276129d5919d95cc8185b1c9958591e481cd95b1958dd1959604a1b6044820152606401610a26565b60025460ff16158015610afb57507f00000000000000000000000000000000000000000000000000000000000000006001600654610af99190612e4b565b105b15610b8c576002805461ffff191660019081179091555b600654811015610b88576000818152600760209081526040808320546001600160a01b031683526016909152812080547f00000000000000000000000000000000000000000000000000000000000000009290610b70908490612ec2565b90915550819050610b8081612eda565b915050610b12565b5050565b6002805461ffff1916610101179055600654600090610bad90600190612e4b565b610bb79083612f0b565b905060015b7f00000000000000000000000000000000000000000000000000000000000000008111610cee576000600781610bf28486612ec2565b815260208082019290925260409081016000908120546001600160a01b03168082526010909352205490915015610c715781610c2d81612f1f565b9250506001600654610c3f9190612e4b565b82610c4a8580612ec2565b610c549190612ec2565b610c5f906001612ec2565b610c699190612f0b565b925050610cdc565b6001600654610c809190612e4b565b82610c8b8580612ec2565b610c959190612ec2565b610c9f9190612f0b565b6001600160a01b0390911660008181526010602090815260408083208690558583526011909152902080546001600160a01b031916909117905591505b80610ce681612eda565b915050610bbc565b50505b50565b336000908152600a6020526040902054610d3d5760405162461bcd60e51b815260206004820152600a602482015269139bc81c995c5d595cdd60b21b6044820152606401610a26565b7f00000000000000000000000000000000000000000000000000000000000000004211610da15760405162461bcd60e51b8152602060048201526012602482015271151a5b59481a5cc81cdd1a5b1b081b19599d60721b6044820152606401610a26565b336000908152600a6020908152604080832054815160608101835284815282518085018452858152818501908152818401869052828652600b855292909420845181546001600160a01b0319166001600160a01b03909116178155915180517f0000000000000000000000000000000000000000000000000000000000000000959294929392610e3892600185019291019061297d565b5060409182015160029190910155336000818152600a602052828120819055915184908381818185875af1925050503d8060008114610e93576040519150601f19603f3d011682016040523d82523d6000602084013e610e98565b606091505b5050905080610cee57604051631d42c86760e21b815260040160405180910390fd5b610ee7604051806060016040528060006001600160a01b0316815260200160608152602001600081525090565b6000828152600b602090815260409182902082516060810190935280546001600160a01b031683526001810180549192840191610f2390612dfa565b80601f0160208091040260200160405190810160405280929190818152602001828054610f4f90612dfa565b8015610f9c5780601f10610f7157610100808354040283529160200191610f9c565b820191906000526020600020905b815481529060010190602001808311610f7f57829003601f168201915b505050505081526020016002820154815250509050919050565b7f0000000000000000000000000000000000000000000000000000000000000000421161101d5760405162461bcd60e51b8152602060048201526015602482015274129d5919da5b99c81b9bdd08195b991959081e595d605a1b6044820152606401610a26565b60055460ff16156110655760405162461bcd60e51b8152602060048201526012602482015271105b1c9958591e48199d5b1b199a5b1b195960721b6044820152606401610a26565b60025460ff16801561107f5750600254610100900460ff16155b15611093576005805460ff19166001179055565b60025460ff16611125576002805461ffff191660019081179091555b600654811015610cf1576000818152600760209081526040808320546001600160a01b031683526016909152812080547f0000000000000000000000000000000000000000000000000000000000000000929061110d908490612ec2565b9091555081905061111d81612eda565b9150506110af565b6005805460ff191660019081179091555b7f0000000000000000000000000000000000000000000000000000000000000000811161121f576001600d5461116c9190612e4b565b6000828152601160209081526040808320546001600160a01b031683526013909152902054141561120d576040805180820190915281815260006020820181815260148054600181018255925291517fce6d7b5282bd9a3661ae061feed1dbda4e52ab073b1f9285be6e155d9c38d4ec60029092029182015590517fce6d7b5282bd9a3661ae061feed1dbda4e52ab073b1f9285be6e155d9c38d4ed909101555b8061121781612eda565b915050611136565b5060145461131057600060016006546112389190612e4b565b6112827f00000000000000000000000000000000000000000000000000000000000000007f0000000000000000000000000000000000000000000000000000000000000000612ec2565b61128c9190612f36565b905060015b600654811015610b88576000818152600760209081526040808320546001600160a01b0316835260109091529020546112fe576000818152600760209081526040808320546001600160a01b031683526016909152812080548492906112f8908490612ec2565b90915550505b8061130881612eda565b915050611291565b601454600090611321906064612f4a565b61136b7f00000000000000000000000000000000000000000000000000000000000000007f0000000000000000000000000000000000000000000000000000000000000000612f4a565b6113759190612f36565b6014549091506000906113889083612f4a565b60016006546113979190612e4b565b6113c1907f0000000000000000000000000000000000000000000000000000000000000000612f4a565b6113cb9190612e4b565b905060005b60145481101561149a5782601482815481106113ee576113ee612f69565b9060005260206000209060020201600101819055508260166000601160006014868154811061141f5761141f612f69565b906000526020600020906002020160000154815260200190815260200160002060009054906101000a90046001600160a01b03166001600160a01b03166001600160a01b0316815260200190815260200160002060008282546114829190612ec2565b9091555081905061149281612eda565b9150506113d0565b5060015b600d5481101561159d576114d360027f0000000000000000000000000000000000000000000000000000000000000000612f36565b6000828152600f6020526040902060030154111561158b576000818152600f60205260408120600201546004805491929091611510908490612ec2565b90915550506040805180820190915281815260006020820181815260158054600181018255925291517f55f448fdea98c4d29eb340757ef0a66cd03dbb9538908a6a81d96026b71ec47560029092029182015590517f55f448fdea98c4d29eb340757ef0a66cd03dbb9538908a6a81d96026b71ec476909101555b8061159581612eda565b91505061149e565b506015546116ef57600060016006546115b69190612e4b565b6115c09083612f36565b905060005b60145481101561166657816016600060116000601486815481106115eb576115eb612f69565b906000526020600020906002020160000154815260200190815260200160002060009054906101000a90046001600160a01b03166001600160a01b03166001600160a01b03168152602001908152602001600020600082825461164e9190612ec2565b9091555081905061165e81612eda565b9150506115c5565b5060015b6006548110156116e9576000818152600760209081526040808320546001600160a01b0316835260109091529020546116d7576000818152600760209081526040808320546001600160a01b031683526016909152812080548492906116d1908490612ec2565b90915550505b806116e181612eda565b91505061166a565b50505050565b6000816004541061170f57816004546117089190612e4b565b9050600091505b60005b60155481101561182d576000600f60006015848154811061173557611735612f69565b90600052602060002090600202016000015481526020019081526020016000206002015490506000600454848361176c9190612f4a565b6117769190612f36565b6117809083612e4b565b9050806015848154811061179657611796612f69565b9060005260206000209060020201600101819055508060166000600f6000601588815481106117c7576117c7612f69565b6000918252602080832060029092029091015483528281019390935260409182018120546001600160a01b0316845291830193909352910181208054909190611811908490612ec2565b925050819055505050808061182590612eda565b915050611712565b508115610cee57600060016006546118459190612e4b565b61184f9084612f36565b905060005b6014548110156118f5578160166000601160006014868154811061187a5761187a612f69565b906000526020600020906002020160000154815260200190815260200160002060009054906101000a90046001600160a01b03166001600160a01b03166001600160a01b0316815260200190815260200160002060008282546118dd9190612ec2565b909155508190506118ed81612eda565b915050611854565b5060015b600654811015611978576000818152600760209081526040808320546001600160a01b031683526010909152902054611966576000818152600760209081526040808320546001600160a01b03168352601690915281208054849290611960908490612ec2565b90915550505b8061197081612eda565b9150506118f9565b5050505050565b336000908152601660205260409020546119c85760405162461bcd60e51b815260206004820152600a6024820152694e6f2062616c616e636560b01b6044820152606401610a26565b33600081815260166020526040808220805490839055905190929083908381818185875af1925050503d8060008114611a1d576040519150601f19603f3d011682016040523d82523d6000602084013e611a22565b606091505b5050905080610b8857604051631d42c86760e21b815260040160405180910390fd5b7f00000000000000000000000000000000000000000000000000000000000000004210611a835760405162461bcd60e51b8152600401610a2690612f7f565b3360009081526008602052604090205415611ad35760405162461bcd60e51b815260206004820152601060248201526f20b63932b0b23c90309036b2b6b132b960811b6044820152606401610a26565b6001600654611ae29190612e4b565b336000908152600a60209081526040808320548352600b90915290206002015414611b5b5760405162461bcd60e51b8152602060048201526024808201527f4e6f7420616c6c206d656d6265727320616363657074656420746865207265716044820152631d595cdd60e21b6064820152608401610a26565b336000908152600a6020908152604080832054815160608101835284815282518085018452858152818501908152818401869052828652600b855292909420845181546001600160a01b0319166001600160a01b0390911617815591518051919493611bcf9260018501929091019061297d565b50604091820151600290910155336000818152600a60209081528382208290556006805483526007825284832080546001600160a01b0319168517905580549383526008909152928120829055909190611c2883612eda565b919050555050565b7f00000000000000000000000000000000000000000000000000000000000000003414611c9b5760405162461bcd60e51b8152602060048201526019602482015278105b5bdd5b9d081cd95b9d081a5cdb89dd0818dbdc9c9958dd603a1b6044820152606401610a26565b7f00000000000000000000000000000000000000000000000000000000000000004210611cda5760405162461bcd60e51b8152600401610a2690612f7f565b3360009081526008602052604090205415611d2f5760405162461bcd60e51b81526020600482015260156024820152744d656d62657220616c72656164792065786973747360581b6044820152606401610a26565b336000908152600a602052604090205415611d855760405162461bcd60e51b81526020600482015260166024820152755265717565737420616c72656164792065786973747360501b6044820152606401610a26565b60408051606081018252338152602080820184815260008385018190526009548152600b835293909320825181546001600160a01b0319166001600160a01b0390911617815592518051929392611de2926001850192019061297d565b5060409182015160029091015560098054336000908152600a60205292832081905591611c2883612eda565b611e42604051806080016040528060006001600160a01b031681526020016060815260200160008152602001600081525090565b6000828152600f602090815260409182902082516080810190935280546001600160a01b031683526001810180549192840191611e7e90612dfa565b80601f0160208091040260200160405190810160405280929190818152602001828054611eaa90612dfa565b8015611ef75780601f10611ecc57610100808354040283529160200191611ef7565b820191906000526020600020905b815481529060010190602001808311611eda57829003601f168201915b50505050508152602001600282015481526020016003820154815250509050919050565b611f236128ce565b611f2d600061292d565b565b60606014805480602002602001604051908101604052809291908181526020016000905b82821015611f9957838290600052602060002090600202016040518060400160405290816000820154815260200160018201548152505081526020019060010190611f53565b50505050905090565b33600090815260086020526040902054611fce5760405162461bcd60e51b8152600401610a2690612fc1565b6000818152600b60205260409020546001600160a01b031661202b5760405162461bcd60e51b815260206004820152601660248201527514995c5d595cdd08191bd95cc81b9bdd08195e1a5cdd60521b6044820152606401610a26565b600c3382604051602001612040929190612dc5565b60408051601f198184030181529082905261205a91612dde565b9081526040519081900360200190205460ff16156120ad5760405162461bcd60e51b815260206004820152601060248201526f105b1c9958591e481858d8d95c1d195960821b6044820152606401610a26565b6001600c33836040516020016120c4929190612dc5565b60408051601f19818403018152908290526120de91612dde565b908152602001604051809103902060006101000a81548160ff0219169083151502179055506001600b6000838152602001908152602001600020600201600082825461212a9190612ec2565b909155505050565b6000546001600160a01b031690565b600060016006546109da9190612e4b565b7f000000000000000000000000000000000000000000000000000000000000000042106121c15760405162461bcd60e51b815260206004820152601d60248201527f436f6e7472616374206973206e6f742076616c696420616e796d6f72650000006044820152606401610a26565b7f0000000000000000000000000000000000000000000000000000000000000000421061222a5760405162461bcd60e51b8152602060048201526017602482015276129d5919da5b99c8185b1c9958591e481cdd185c9d1959604a1b6044820152606401610a26565b336000908152600860205260409020546122565760405162461bcd60e51b8152600401610a2690612fc1565b336000908152600e6020526040902054156122ae5760405162461bcd60e51b8152602060048201526018602482015277496e737572616e636520616c72656164792065786973747360401b6044820152606401610a26565b600d54336000818152600e60209081526040808320859055805160808101825293845283820187815284820187905260608501849052948352600f8252909120825181546001600160a01b0319166001600160a01b0390911617815592518051929392612321926001850192019061297d565b506040820151816002015560608201518160030155905050806003600082825461234b9190612ec2565b9091555050600d805490600061236083612eda565b91905055505050565b7f000000000000000000000000000000000000000000000000000000000000000042116123a85760405162461bcd60e51b8152600401610a2690612e62565b7f000000000000000000000000000000000000000000000000000000000000000042106123e75760405162461bcd60e51b8152600401610a2690612e93565b336000908152601060205260409020546124315760405162461bcd60e51b815260206004820152600b60248201526a4e6f742061206a7564676560a81b6044820152606401610a26565b6000838152600f60205260409020546001600160a01b03166124905760405162461bcd60e51b8152602060048201526018602482015277125b9cdd5c985b98d948191bd95cc81b9bdd08195e1a5cdd60421b6044820152606401610a26565b601233846040516020016124a5929190612dc5565b60408051601f19818403018152908290526124bf91612dde565b9081526040519081900360200190205460ff161580156124df5750805115155b8061252d5750601233846040516020016124fa929190612dc5565b60408051601f198184030181529082905261251491612dde565b9081526040519081900360200190205460ff1615156001145b1561256c5760405162461bcd60e51b815260206004820152600f60248201526e105b1c9958591e481d5c19185d1959608a1b6044820152606401610a26565b816125b55780516125b55760405162461bcd60e51b8152602060048201526013602482015272526561736f6e2075726920697320656d70747960681b6044820152606401610a26565b6040518060400160405280831515815260200182815250601233856040516020016125e1929190612dc5565b60408051601f19818403018152908290526125fb91612dde565b908152604051602091819003820190208251815460ff191690151517815582820151805191926126339260018501929091019061297d565b509050508115612665576000838152600f6020526040812060030180546001929061265f908490612ec2565b90915550505b336000908152601360205260408120805460019290612685908490612ec2565b9091555050505050565b606060158054806020026020016040519081016040528092919081815260200160009082821015611f9957838290600052602060002090600202016040518060400160405290816000820154815260200160018201548152505081526020019060010190611f53565b60408051808201909152600081526060602082015260008381526011602090815260409182902054915160129261273d926001600160a01b0390911691869101612dc5565b60408051601f198184030181529082905261275791612dde565b908152604080519182900360209081018320838301909252815460ff16151583526001820180549184019161278b90612dfa565b80601f01602080910402602001604051908101604052809291908181526020018280546127b790612dfa565b80156128045780601f106127d957610100808354040283529160200191612804565b820191906000526020600020905b8154815290600101906020018083116127e757829003601f168201915b505050505081525050905092915050565b60007f0000000000000000000000000000000000000000000000000000000000000000612840612141565b1015905090565b600060016009546109da9190612e4b565b6128606128ce565b6001600160a01b0381166128c55760405162461bcd60e51b815260206004820152602660248201527f4f776e61626c653a206e6577206f776e657220697320746865207a65726f206160448201526564647265737360d01b6064820152608401610a26565b610cf18161292d565b336128d7612132565b6001600160a01b031614611f2d5760405162461bcd60e51b815260206004820181905260248201527f4f776e61626c653a2063616c6c6572206973206e6f7420746865206f776e65726044820152606401610a26565b600080546001600160a01b038381166001600160a01b0319831681178455604051919092169283917f8be0079c531659141344cd1fd0a4f28419497f9722a3daafe3b4186f6b6457e09190a35050565b82805461298990612dfa565b90600052602060002090601f0160209004810192826129ab57600085556129f1565b82601f106129c457805160ff19168380011785556129f1565b828001600101855582156129f1579182015b828111156129f15782518255916020019190600101906129d6565b506129fd929150612a01565b5090565b5b808211156129fd5760008155600101612a02565b60008060408385031215612a2957600080fd5b50508035926020909101359150565b600060208284031215612a4a57600080fd5b81356001600160a01b0381168114612a6157600080fd5b9392505050565b60005b83811015612a83578181015183820152602001612a6b565b838111156116e95750506000910152565b60008151808452612aac816020860160208601612a68565b601f01601f19169290920160200192915050565b602081526000612a616020830184612a94565b600060208284031215612ae557600080fd5b5035919050565b602080825282516001600160a01b03168282015282015160606040830152600090612b1a6080840182612a94565b9050604084015160608401528091505092915050565b634e487b7160e01b600052604160045260246000fd5b600082601f830112612b5757600080fd5b81356001600160401b0380821115612b7157612b71612b30565b604051601f8301601f19908116603f01168101908282118183101715612b9957612b99612b30565b81604052838152866020858801011115612bb257600080fd5b836020870160208301376000602085830101528094505050505092915050565b600060208284031215612be457600080fd5b81356001600160401b03811115612bfa57600080fd5b612c0684828501612b46565b949350505050565b602080825282516001600160a01b03168282015282015160806040830152600090612c3c60a0840182612a94565b905060408401516060840152606084015160808401528091505092915050565b602080825282518282018190526000919060409081850190868401855b82811015612ca657612c9684835180518252602090810151910152565b9284019290850190600101612c79565b5091979650505050505050565b60008060408385031215612cc657600080fd5b82356001600160401b03811115612cdc57600080fd5b612ce885828601612b46565b95602094909401359450505050565b600080600060608486031215612d0c57600080fd5b8335925060208401358015158114612d2357600080fd5b915060408401356001600160401b03811115612d3e57600080fd5b612d4a86828701612b46565b9150509250925092565b602080825282518282018190526000919060409081850190868401855b82811015612ca657612d8e84835180518252602090810151910152565b9284019290850190600101612d71565b6020815281511515602082015260006020830151604080840152612c066060840182612a94565b6001600160a01b03929092168252602082015260400190565b60008251612df0818460208701612a68565b9190910192915050565b600181811c90821680612e0e57607f821691505b60208210811415612e2f57634e487b7160e01b600052602260045260246000fd5b50919050565b634e487b7160e01b600052601160045260246000fd5b600082821015612e5d57612e5d612e35565b500390565b602080825260179082015276129d5919da5b99c81b9bdd081cdd185c9d1959081e595d604a1b604082015260600190565b602080825260159082015274129d5919da5b99c8185b1c9958591e48195b991959605a1b604082015260600190565b60008219821115612ed557612ed5612e35565b500190565b6000600019821415612eee57612eee612e35565b5060010190565b634e487b7160e01b600052601260045260246000fd5b600082612f1a57612f1a612ef5565b500690565b600081612f2e57612f2e612e35565b506000190190565b600082612f4557612f45612ef5565b500490565b6000816000190483118215151615612f6457612f64612e35565b500290565b634e487b7160e01b600052603260045260246000fd5b60208082526022908201527f416464696e67206d656d626572206973206e6f742076616c696420616e796d6f604082015261726560f01b606082015260800190565b6020808252600c908201526b2737ba10309036b2b6b132b960a11b60408201526060019056fea264697066735822122033824df2e8661363aed44527cbfbd8ed66d6e0265a8cea7be71852e295af09b564736f6c634300080c00334275726679496e737572616e63653a206a75646765734c656e6774682073686f4275726679496e737572616e63653a2070657263656e74446976696465496e74a26469706673582212205b1065f8fe9b7ede8264b37567613170b498253329ce44731b231ba49e6edae864736f6c634300080c0033",
  "devdoc": {
    "kind": "dev",
    "methods": {
      "performUpkeep(bytes)": {
        "details": "The input to this method should not be trusted, and the caller of the method should not even be restricted to any single registry. Anyone should be able call it, and the input should be validated, there is no guarantee that the data passed in is the performData returned from checkUpkeep. This could happen due to malicious keepers, racing keepers, or simply a state change while the performUpkeep transaction is waiting for confirmation. Always validate the data passed in.",
        "params": {
          "performData": "is the data which was passed back from the checkData simulation. If it is encoded, it can easily be decoded into other types by calling `abi.decode`. This data should not be trusted, and should be validated against the contract's current state."
        }
      }
    },
    "version": 1
  },
  "userdoc": {
    "kind": "user",
    "methods": {
      "performUpkeep(bytes)": {
        "notice": "method that is actually executed by the keepers, via the registry. The data returned by the checkUpkeep simulation will be passed into this method to actually be executed."
      }
    },
    "version": 1
  },
  "storageLayout": {
    "storage": [
      {
        "astId": 382,
        "contract": "contracts/Burfy.sol:Burfy",
        "label": "s_requestIdToContractAddress",
        "offset": 0,
        "slot": "0",
        "type": "t_mapping(t_uint256,t_address)"
      },
      {
        "astId": 386,
        "contract": "contracts/Burfy.sol:Burfy",
        "label": "s_contractInfos",
        "offset": 0,
        "slot": "1",
        "type": "t_array(t_struct(ContractInfo)363_storage)dyn_storage"
      }
    ],
    "types": {
      "t_address": {
        "encoding": "inplace",
        "label": "address",
        "numberOfBytes": "20"
      },
      "t_array(t_struct(ContractInfo)363_storage)dyn_storage": {
        "base": "t_struct(ContractInfo)363_storage",
        "encoding": "dynamic_array",
        "label": "struct Burfy.ContractInfo[]",
        "numberOfBytes": "32"
      },
      "t_mapping(t_uint256,t_address)": {
        "encoding": "mapping",
        "key": "t_uint256",
        "label": "mapping(uint256 => address)",
        "numberOfBytes": "32",
        "value": "t_address"
      },
      "t_struct(ContractInfo)363_storage": {
        "encoding": "inplace",
        "label": "struct Burfy.ContractInfo",
        "members": [
          {
            "astId": 358,
            "contract": "contracts/Burfy.sol:Burfy",
            "label": "contractAddress",
            "offset": 0,
            "slot": "0",
            "type": "t_address"
          },
          {
            "astId": 360,
            "contract": "contracts/Burfy.sol:Burfy",
            "label": "judgingStartTime",
            "offset": 0,
            "slot": "1",
            "type": "t_uint256"
          },
          {
            "astId": 362,
            "contract": "contracts/Burfy.sol:Burfy",
            "label": "judgingEndTime",
            "offset": 0,
            "slot": "2",
            "type": "t_uint256"
          }
        ],
        "numberOfBytes": "96"
      },
      "t_uint256": {
        "encoding": "inplace",
        "label": "uint256",
        "numberOfBytes": "32"
      }
    }
  }
}