{
  "address": "0x06CE5B276a53e072dc3144D3746e57fD2CA6a1B4",
  "abi": [
    {
      "inputs": [
        {
          "internalType": "address",
          "name": "vrfCoordinatorV2",
          "type": "address"
        },
        {
          "internalType": "uint64",
          "name": "subscriptionId",
          "type": "uint64"
        },
        {
          "internalType": "bytes32",
          "name": "gasLane",
          "type": "bytes32"
        },
        {
          "internalType": "uint32",
          "name": "callbackGasLimit",
          "type": "uint32"
        },
        {
          "internalType": "address",
          "name": "_anycallcontract",
          "type": "address"
        },
        {
          "internalType": "uint256",
          "name": "_destchain",
          "type": "uint256"
        }
      ],
      "stateMutability": "nonpayable",
      "type": "constructor"
    },
    {
      "inputs": [
        {
          "internalType": "address",
          "name": "have",
          "type": "address"
        },
        {
          "internalType": "address",
          "name": "want",
          "type": "address"
        }
      ],
      "name": "OnlyCoordinatorCanFulfill",
      "type": "error"
    },
    {
      "inputs": [],
      "name": "WithdrawFailed",
      "type": "error"
    },
    {
      "stateMutability": "payable",
      "type": "fallback"
    },
    {
      "inputs": [
        {
          "internalType": "address",
          "name": "contractAddress",
          "type": "address"
        },
        {
          "internalType": "uint256",
          "name": "requestId",
          "type": "uint256"
        }
      ],
      "name": "acceptJoiningRequestMultiChain",
      "outputs": [],
      "stateMutability": "payable",
      "type": "function"
    },
    {
      "inputs": [
        {
          "internalType": "address",
          "name": "contractAddress",
          "type": "address"
        }
      ],
      "name": "addAsMemberMultiChain",
      "outputs": [],
      "stateMutability": "payable",
      "type": "function"
    },
    {
      "inputs": [],
      "name": "anycallExecutor",
      "outputs": [
        {
          "internalType": "address",
          "name": "",
          "type": "address"
        }
      ],
      "stateMutability": "view",
      "type": "function"
    },
    {
      "inputs": [],
      "name": "anycallcontract",
      "outputs": [
        {
          "internalType": "address",
          "name": "",
          "type": "address"
        }
      ],
      "stateMutability": "view",
      "type": "function"
    },
    {
      "inputs": [
        {
          "internalType": "address",
          "name": "_anycallcontract",
          "type": "address"
        }
      ],
      "name": "changeanycallcontract",
      "outputs": [],
      "stateMutability": "nonpayable",
      "type": "function"
    },
    {
      "inputs": [
        {
          "internalType": "uint256",
          "name": "_destchain",
          "type": "uint256"
        }
      ],
      "name": "changechain",
      "outputs": [],
      "stateMutability": "nonpayable",
      "type": "function"
    },
    {
      "inputs": [
        {
          "internalType": "address",
          "name": "_owneraddress",
          "type": "address"
        }
      ],
      "name": "changeowneraddress",
      "outputs": [],
      "stateMutability": "nonpayable",
      "type": "function"
    },
    {
      "inputs": [
        {
          "internalType": "bytes",
          "name": "",
          "type": "bytes"
        }
      ],
      "name": "checkUpkeep",
      "outputs": [
        {
          "internalType": "bool",
          "name": "upkeepNeeded",
          "type": "bool"
        },
        {
          "internalType": "bytes",
          "name": "performData",
          "type": "bytes"
        }
      ],
      "stateMutability": "view",
      "type": "function"
    },
    {
      "inputs": [
        {
          "internalType": "string",
          "name": "baseUri",
          "type": "string"
        },
        {
          "internalType": "uint256",
          "name": "minMembers",
          "type": "uint256"
        },
        {
          "internalType": "uint256",
          "name": "requestTime",
          "type": "uint256"
        },
        {
          "internalType": "uint256",
          "name": "validity",
          "type": "uint256"
        },
        {
          "internalType": "uint256",
          "name": "claimTime",
          "type": "uint256"
        },
        {
          "internalType": "uint256",
          "name": "judgingTime",
          "type": "uint256"
        },
        {
          "internalType": "uint256",
          "name": "judgesLength",
          "type": "uint256"
        },
        {
          "internalType": "uint256",
          "name": "amount",
          "type": "uint256"
        },
        {
          "internalType": "uint256",
          "name": "percentDivideIntoJudges",
          "type": "uint256"
        },
        {
          "internalType": "string",
          "name": "groupId",
          "type": "string"
        }
      ],
      "name": "createInsurance",
      "outputs": [
        {
          "internalType": "address",
          "name": "",
          "type": "address"
        }
      ],
      "stateMutability": "payable",
      "type": "function"
    },
    {
      "inputs": [],
      "name": "destchain",
      "outputs": [
        {
          "internalType": "uint256",
          "name": "",
          "type": "uint256"
        }
      ],
      "stateMutability": "view",
      "type": "function"
    },
    {
      "inputs": [
        {
          "internalType": "uint256",
          "name": "index",
          "type": "uint256"
        }
      ],
      "name": "getContract",
      "outputs": [
        {
          "components": [
            {
              "internalType": "address",
              "name": "contractAddress",
              "type": "address"
            },
            {
              "internalType": "uint256",
              "name": "judgingStartTime",
              "type": "uint256"
            },
            {
              "internalType": "uint256",
              "name": "judgingEndTime",
              "type": "uint256"
            }
          ],
          "internalType": "struct Burfy.ContractInfo",
          "name": "",
          "type": "tuple"
        }
      ],
      "stateMutability": "view",
      "type": "function"
    },
    {
      "inputs": [],
      "name": "getContracts",
      "outputs": [
        {
          "components": [
            {
              "internalType": "address",
              "name": "contractAddress",
              "type": "address"
            },
            {
              "internalType": "uint256",
              "name": "judgingStartTime",
              "type": "uint256"
            },
            {
              "internalType": "uint256",
              "name": "judgingEndTime",
              "type": "uint256"
            }
          ],
          "internalType": "struct Burfy.ContractInfo[]",
          "name": "",
          "type": "tuple[]"
        }
      ],
      "stateMutability": "view",
      "type": "function"
    },
    {
      "inputs": [],
      "name": "getContractsLength",
      "outputs": [
        {
          "internalType": "uint256",
          "name": "",
          "type": "uint256"
        }
      ],
      "stateMutability": "view",
      "type": "function"
    },
    {
      "inputs": [
        {
          "internalType": "address",
          "name": "contractAddress",
          "type": "address"
        }
      ],
      "name": "getRandomNumbers",
      "outputs": [
        {
          "internalType": "uint256",
          "name": "requestId",
          "type": "uint256"
        }
      ],
      "stateMutability": "payable",
      "type": "function"
    },
    {
      "inputs": [],
      "name": "owneraddress",
      "outputs": [
        {
          "internalType": "address",
          "name": "",
          "type": "address"
        }
      ],
      "stateMutability": "view",
      "type": "function"
    },
    {
      "inputs": [
        {
          "internalType": "bytes",
          "name": "performData",
          "type": "bytes"
        }
      ],
      "name": "performUpkeep",
      "outputs": [],
      "stateMutability": "nonpayable",
      "type": "function"
    },
    {
      "inputs": [
        {
          "internalType": "uint256",
          "name": "requestId",
          "type": "uint256"
        },
        {
          "internalType": "uint256[]",
          "name": "randomWords",
          "type": "uint256[]"
        }
      ],
      "name": "rawFulfillRandomWords",
      "outputs": [],
      "stateMutability": "nonpayable",
      "type": "function"
    },
    {
      "inputs": [
        {
          "internalType": "address",
          "name": "contractAddress",
          "type": "address"
        },
        {
          "internalType": "string",
          "name": "baseUri",
          "type": "string"
        },
        {
          "internalType": "uint256",
          "name": "amount",
          "type": "uint256"
        }
      ],
      "name": "requestForInsuranceMultiChain",
      "outputs": [],
      "stateMutability": "payable",
      "type": "function"
    },
    {
      "inputs": [
        {
          "internalType": "address",
          "name": "contractAddress",
          "type": "address"
        },
        {
          "internalType": "uint256",
          "name": "claimId",
          "type": "uint256"
        },
        {
          "internalType": "bool",
          "name": "accepted",
          "type": "bool"
        },
        {
          "internalType": "string",
          "name": "reasonUri",
          "type": "string"
        }
      ],
      "name": "updateInsuranceMultiChain",
      "outputs": [],
      "stateMutability": "payable",
      "type": "function"
    },
    {
      "inputs": [],
      "name": "withdraw",
      "outputs": [],
      "stateMutability": "nonpayable",
      "type": "function"
    },
    {
      "stateMutability": "payable",
      "type": "receive"
    }
  ],
  "transactionHash": "0x0abf5ace7173556c3a6bc1c2f3027316e740e374bd825bb9964bf4241d919782",
  "args": [
    "0x2Ca8E0C643bDe4C2E08ab1fA0da3401AdAD7734D",
    "7819",
    "0x79d3d8832d904592c0bf9818b621522c988bb8b0c05cdc3b15aea1b6e8db0c15",
    "500000",
    "0x965f84D915a9eFa2dD81b653e3AE736555d945f4",
    "4002"
  ],
  "numDeployments": 1,
  "solcInputHash": "015f355624e22e67eb921957e8b37617",
  "bytecode": "0x6101206040523480156200001257600080fd5b50604051620054c8380380620054c883398101604081905262000035916200013a565b6001600160a01b03808716608081905260a05260e08590526001600160401b03861660c05263ffffffff841661010052600080549184166001600160a01b0319928316811790915560028054909216331790915560038290556040805163c34c08e560e01b8152905163c34c08e5916004808201926020929091908290030181865afa158015620000ca573d6000803e3d6000fd5b505050506040513d601f19601f82011682018060405250810190620000f09190620001c2565b600180546001600160a01b0319166001600160a01b039290921691909117905550620001e7945050505050565b80516001600160a01b03811681146200013557600080fd5b919050565b60008060008060008060c087890312156200015457600080fd5b6200015f876200011d565b60208801519096506001600160401b03811681146200017d57600080fd5b60408801516060890151919650945063ffffffff811681146200019f57600080fd5b9250620001af608088016200011d565b915060a087015190509295509295509295565b600060208284031215620001d557600080fd5b620001e0826200011d565b9392505050565b60805160a05160c05160e05161010051615295620002336000396000610c8901526000610c2801526000610c5601526000610cba01526000818161048a01526104cd01526152956000f3fe608060405260043610620001055760003560e01c806303afe59e146200010f57806304bddfbc14620001505780631fe543e314620001675780633ccfd60b146200018c5780634585e33b14620001a457806347d8937d14620001c95780635097a57b14620001f45780636e04ff0d146200020b5780636ebc8c8614620002405780638dd5a63314620002745780639d72a2071462000298578063a0ce2a6914620002af578063a66bcffe14620002df578063aaa484251462000304578063ba6731c01462000326578063c3a2a93a146200033d578063d2c7dfcc1462000364578063e128bcf91462000386578063f6002028146200039d578063fccc134f14620003bf57005b366200010d57005b005b3480156200011c57600080fd5b506200010d6200012e36600462000f23565b600280546001600160a01b0319166001600160a01b0392909216919091179055565b6200010d6200016136600462000f4a565b620003d6565b3480156200017457600080fd5b506200010d6200018636600462000fc2565b6200047f565b3480156200019957600080fd5b506200010d6200050f565b348015620001b157600080fd5b506200010d620001c33660046200107e565b620005d4565b348015620001d657600080fd5b50620001e160035481565b6040519081526020015b60405180910390f35b6200010d620002053660046200116a565b620006ec565b3480156200021857600080fd5b50620002306200022a3660046200107e565b6200078e565b604051620001eb92919062001218565b3480156200024d57600080fd5b50620002656200025f3660046200123d565b6200090b565b604051620001eb919062001279565b3480156200028157600080fd5b506200010d620002933660046200123d565b600355565b6200010d620002a93660046200128f565b62000998565b620002c6620002c036600462001306565b62000a1c565b6040516001600160a01b039091168152602001620001eb565b348015620002ec57600080fd5b506200010d620002fe36600462000f23565b62000b76565b3480156200031157600080fd5b50600254620002c6906001600160a01b031681565b620001e16200033736600462000f23565b62000c19565b3480156200034a57600080fd5b506200035562000d63565b604051620001eb9190620013bf565b3480156200037157600080fd5b50600154620002c6906001600160a01b031681565b6200010d6200039736600462000f23565b62000de7565b348015620003aa57600080fd5b50600054620002c6906001600160a01b031681565b348015620003cc57600080fd5b50600554620001e1565b60008054604080516001602082015280820185905260806060820181905260a08083018690529082018590528251808303909101815260c082019283905260035463065e68a160e21b9093526001600160a01b0390931693631979a284933493620004479389939060c40162001411565b6000604051808303818588803b1580156200046157600080fd5b505af115801562000476573d6000803e3d6000fd5b50505050505050565b336001600160a01b037f00000000000000000000000000000000000000000000000000000000000000001614620004ff5760405163073e64fd60e21b81523360048201526001600160a01b037f00000000000000000000000000000000000000000000000000000000000000001660248201526044015b60405180910390fd5b6200050b828262000e87565b5050565b6002546001600160a01b03163314620005655760405162461bcd60e51b81526020600482015260176024820152764f6e6c79206f776e65722063616e20776974686472617760481b6044820152606401620004f6565b604051600090339047908381818185875af1925050503d8060008114620005a9576040519150601f19603f3d011682016040523d82523d6000602084013e620005ae565b606091505b5050905080620005d157604051631d42c86760e21b815260040160405180910390fd5b50565b600080620005e5838501856200145e565b9150915060006005838154811062000601576200060162001481565b60009182526020909120600390910201546001600160a01b031690508162000663576000600584815481106200063b576200063b62001481565b9060005260206000209060030201600101819055506200065b8162000c19565b505050505050565b6000600584815481106200067b576200067b62001481565b906000526020600020906003020160020181905550806001600160a01b0316632ddfd9286040518163ffffffff1660e01b8152600401600060405180830381600087803b158015620006cc57600080fd5b505af1158015620006e1573d6000803e3d6000fd5b505050505050505050565b600080546040516001600160a01b0390911691631979a28491349187916200071e9160029188918a9160200162001497565b60408051601f19818403018152908290526003546001600160e01b031960e087901b16835262000755939260009060040162001411565b6000604051808303818588803b1580156200076f57600080fd5b505af115801562000784573d6000803e3d6000fd5b5050505050505050565b60006060815b600554811015620009035760058181548110620007b557620007b562001481565b906000526020600020906003020160010154600014158015620007fe57504260058281548110620007ea57620007ea62001481565b906000526020600020906003020160010154105b801562000831575042600582815481106200081d576200081d62001481565b906000526020600020906003020160020154115b156200086a576040805160208101839052600091810191909152600193506060015b604051602081830303815290604052915062000903565b6005818154811062000880576200088062001481565b906000526020600020906003020160020154600014158015620008c957504260058281548110620008b557620008b562001481565b906000526020600020906003020160020154105b15620008ee576040805160208101839052600191810182905290935060600162000853565b80620008fa81620014e4565b91505062000794565b509250929050565b62000939604051806060016040528060006001600160a01b0316815260200160008152602001600081525090565b600582815481106200094f576200094f62001481565b600091825260209182902060408051606081018252600390930290910180546001600160a01b031683526001810154938301939093526002909201549181019190915292915050565b6000546040516001600160a01b0390911690631979a2849034908790620009cb90600390899088908a9060200162001497565b60408051601f19818403018152908290526003546001600160e01b031960e087901b16835262000a02939260009060040162001411565b6000604051808303818588803b158015620006cc57600080fd5b6000808b8b8b8b8b8b8b8b8b8b60405162000a379062000eff565b62000a4c9a9998979695949392919062001502565b604051809103906000f08015801562000a69573d6000803e3d6000fd5b5090506000888a62000a7c8d4262001571565b62000a88919062001571565b62000a94919062001571565b9050600062000aa4898362001571565b604080516060810182526001600160a01b038681168252602082019586529181019283526005805460018101825560009190915290517f036b6384b5eca791c62761152d0c79bb0604c104a5fb6f4eb0703f3154bb3db0600390920291820180546001600160a01b031916919093161790915592517f036b6384b5eca791c62761152d0c79bb0604c104a5fb6f4eb0703f3154bb3db1840155517f036b6384b5eca791c62761152d0c79bb0604c104a5fb6f4eb0703f3154bb3db290920191909155509b9a5050505050505050505050565b600080546001600160a01b0319166001600160a01b0383169081179091556040805163c34c08e560e01b8152905163c34c08e5916004808201926020929091908290030181865afa15801562000bd0573d6000803e3d6000fd5b505050506040513d601f19601f8201168201806040525081019062000bf691906200158c565b600180546001600160a01b0319166001600160a01b039290921691909117905550565b6040516305d3b1d360e41b81527f000000000000000000000000000000000000000000000000000000000000000060048201526001600160401b037f00000000000000000000000000000000000000000000000000000000000000001660248201526003604482015263ffffffff7f0000000000000000000000000000000000000000000000000000000000000000166064820152600160848201526000907f00000000000000000000000000000000000000000000000000000000000000006001600160a01b031690635d3b1d309060a4016020604051808303816000875af115801562000d0c573d6000803e3d6000fd5b505050506040513d601f19601f8201168201806040525081019062000d329190620015ac565b600081815260046020526040902080546001600160a01b0319166001600160a01b0394909416939093179092555090565b60606005805480602002602001604051908101604052809291908181526020016000905b8282101562000dde576000848152602090819020604080516060810182526003860290920180546001600160a01b031683526001808201548486015260029091015491830191909152908352909201910162000d87565b50505050905090565b60008054604080516020810184905280820184905260806060820181905260a08083018690529082018590528251808303909101815260c082019283905260035463065e68a160e21b9093526001600160a01b0390931693631979a28493349362000e589388939060c40162001411565b6000604051808303818588803b15801562000e7257600080fd5b505af11580156200065b573d6000803e3d6000fd5b60008281526004602052604081205482516001600160a01b03909116918291631a9d787991859162000ebd5762000ebd62001481565b60200260200101516040518263ffffffff1660e01b815260040162000ee491815260200190565b600060405180830381600087803b1580156200046157600080fd5b613c9980620015c783390190565b6001600160a01b0381168114620005d157600080fd5b60006020828403121562000f3657600080fd5b813562000f438162000f0d565b9392505050565b6000806040838503121562000f5e57600080fd5b823562000f6b8162000f0d565b946020939093013593505050565b634e487b7160e01b600052604160045260246000fd5b604051601f8201601f191681016001600160401b038111828210171562000fba5762000fba62000f79565b604052919050565b6000806040838503121562000fd657600080fd5b823591506020808401356001600160401b038082111562000ff657600080fd5b818601915086601f8301126200100b57600080fd5b81358181111562001020576200102062000f79565b8060051b91506200103384830162000f8f565b81815291830184019184810190898411156200104e57600080fd5b938501935b838510156200106e5784358252938501939085019062001053565b8096505050505050509250929050565b600080602083850312156200109257600080fd5b82356001600160401b0380821115620010aa57600080fd5b818501915085601f830112620010bf57600080fd5b813581811115620010cf57600080fd5b866020828501011115620010e257600080fd5b60209290920196919550909350505050565b600082601f8301126200110657600080fd5b81356001600160401b0381111562001122576200112262000f79565b62001137601f8201601f191660200162000f8f565b8181528460208386010111156200114d57600080fd5b816020850160208301376000918101602001919091529392505050565b6000806000606084860312156200118057600080fd5b83356200118d8162000f0d565b925060208401356001600160401b03811115620011a957600080fd5b620011b786828701620010f4565b925050604084013590509250925092565b6000815180845260005b81811015620011f057602081850181015186830182015201620011d2565b8181111562001203576000602083870101525b50601f01601f19169290920160200192915050565b8215158152604060208201526000620012356040830184620011c8565b949350505050565b6000602082840312156200125057600080fd5b5035919050565b80516001600160a01b0316825260208082015190830152604090810151910152565b6060810162001289828462001257565b92915050565b60008060008060808587031215620012a657600080fd5b8435620012b38162000f0d565b93506020850135925060408501358015158114620012d057600080fd5b915060608501356001600160401b03811115620012ec57600080fd5b620012fa87828801620010f4565b91505092959194509250565b6000806000806000806000806000806101408b8d0312156200132757600080fd5b8a356001600160401b03808211156200133f57600080fd5b6200134d8e838f01620010f4565b9b5060208d01359a5060408d0135995060608d0135985060808d0135975060a08d0135965060c08d0135955060e08d013594506101008d013593506101208d01359150808211156200139e57600080fd5b50620013ad8d828e01620010f4565b9150509295989b9194979a5092959850565b6020808252825182820181905260009190848201906040850190845b818110156200140557620013f183855162001257565b9284019260609290920191600101620013db565b50909695505050505050565b6001600160a01b038516815260a0602082018190526000906200143790830186620011c8565b60408301949094525060608101919091528082036080909101526000815260200192915050565b600080604083850312156200147257600080fd5b50508035926020909101359150565b634e487b7160e01b600052603260045260246000fd5b60ff85168152836020820152608060408201526000620014bb6080830185620011c8565b9050821515606083015295945050505050565b634e487b7160e01b600052601160045260246000fd5b6000600019821415620014fb57620014fb620014ce565b5060010190565b6000610140808352620015188184018e620011c8565b90508b60208401528a60408401528960608401528860808401528760a08401528660c08401528560e084015284610100840152828103610120840152620015608185620011c8565b9d9c50505050505050505050505050565b60008219821115620015875762001587620014ce565b500190565b6000602082840312156200159f57600080fd5b815162000f438162000f0d565b600060208284031215620015bf57600080fd5b505191905056fe61018060405260016007556001600a556001600e553480156200002157600080fd5b5060405162003c9938038062003c99833981016040819052620000449162000728565b6200004f3362000565565b60008911620000cb5760405162461bcd60e51b815260206004820152603360248201527f4275726679496e737572616e63653a206d696e4d656d626572732073686f756c60448201527f642062652067726561746572207468616e20300000000000000000000000000060648201526084015b60405180910390fd5b60008811620001435760405162461bcd60e51b815260206004820152603460248201527f4275726679496e737572616e63653a207265717565737454696d652073686f7560448201527f6c642062652067726561746572207468616e20300000000000000000000000006064820152608401620000c2565b60008711620001af5760405162461bcd60e51b815260206004820152603160248201527f4275726679496e737572616e63653a2076616c69646974792073686f756c6420604482015270062652067726561746572207468616e203607c1b6064820152608401620000c2565b60008611620002275760405162461bcd60e51b815260206004820152603960248201527f4275726679496e737572616e63653a206a756467696e67537461727454696d6560448201527f2073686f756c642062652067726561746572207468616e2030000000000000006064820152608401620000c2565b600085116200029f5760405162461bcd60e51b815260206004820152603460248201527f4275726679496e737572616e63653a206a756467696e6754696d652073686f7560448201527f6c642062652067726561746572207468616e20300000000000000000000000006064820152608401620000c2565b60008411620003065760405162461bcd60e51b8152602060048201526035602482015260008051602062003c5983398151915260448201527f756c642062652067726561746572207468616e203000000000000000000000006064820152608401620000c2565b888411156200037d5760405162461bcd60e51b8152602060048201526047602482015260008051602062003c5983398151915260448201527f756c64206265206c657373207468616e206f7220657175616c20746f206d696e6064820152664d656d6265727360c81b608482015260a401620000c2565b60008311620003e75760405162461bcd60e51b815260206004820152602f60248201527f4275726679496e737572616e63653a20616d6f756e742073686f756c6420626560448201526e02067726561746572207468616e203608c1b6064820152608401620000c2565b6000821162000450576040805162461bcd60e51b815260206004820152602481019190915260008051602062003c7983398151915260448201527f6f4a75646765732073686f756c642062652067726561746572207468616e20306064820152608401620000c2565b6064821115620004cc5760405162461bcd60e51b815260206004820152604b602482015260008051602062003c7983398151915260448201527f6f4a75646765732073686f756c64206265206c657373207468616e206f72206560648201526a07175616c20746f203130360ac1b608482015260a401620000c2565b8951620004e19060019060208d0190620005b5565b506080899052620004f38842620007e1565b60a081905262000505908890620007e1565b60c081905262000517908790620007e1565b60e081905262000529908690620007e1565b61010052610120849052610140839052610160829052805162000554906002906020840190620005b5565b505050505050505050505062000845565b600080546001600160a01b038381166001600160a01b0319831681178455604051919092169283917f8be0079c531659141344cd1fd0a4f28419497f9722a3daafe3b4186f6b6457e09190a35050565b828054620005c39062000808565b90600052602060002090601f016020900481019282620005e7576000855562000632565b82601f106200060257805160ff191683800117855562000632565b8280016001018555821562000632579182015b828111156200063257825182559160200191906001019062000615565b506200064092915062000644565b5090565b5b8082111562000640576000815560010162000645565b634e487b7160e01b600052604160045260246000fd5b600082601f8301126200068357600080fd5b81516001600160401b0380821115620006a057620006a06200065b565b604051601f8301601f19908116603f01168101908282118183101715620006cb57620006cb6200065b565b81604052838152602092508683858801011115620006e857600080fd5b600091505b838210156200070c5785820183015181830184015290820190620006ed565b838211156200071e5760008385830101525b9695505050505050565b6000806000806000806000806000806101408b8d0312156200074957600080fd5b8a516001600160401b03808211156200076157600080fd5b6200076f8e838f0162000671565b9b5060208d01519a5060408d0151995060608d0151985060808d0151975060a08d0151965060c08d0151955060e08d015194506101008d015193506101208d0151915080821115620007c057600080fd5b50620007cf8d828e0162000671565b9150509295989b9194979a5092959850565b600082198211156200080357634e487b7160e01b600052601160045260246000fd5b500190565b600181811c908216806200081d57607f821691505b602082108114156200083f57634e487b7160e01b600052602260045260246000fd5b50919050565b60805160a05160c05160e05161010051610120516101405161016051613306620009536000396000818161075601526113b001526000818161082b01528181610b9d01528181610e5b0152818161113a015281816112b70152818161137c015281816114100152611ad801526000818161031301528181610c170152818161119101528181611296015261152201526000818161051b01528181610a8a01528181611011015261283a01526000818161037d01528181610a420152818161263b01526127fb01526000818161047001526125cc0152600081816103b001528181610d9801528181611b4301526121d601526000818161065d01528181610b2401526120c001526133066000f3fe60806040526004361061022e5760003560e01c8063071694fb146102335780630a4b5162146102685780630cac36b2146102ac57806313284cdd146102ce578063134fe3041461030457806316daa23b146103375780631a9d78791461034c5780631e1e94991461036e578063201095b7146103a157806321e3ca5d146103d4578063253ecfcf146103e957806326757b731461041f5780632ddfd9281461044c5780633b7f7cfa146104615780633ccfd60b146104945780633e035c78146104a95780633f952091146104f75780634340b2131461050c5780634c6ee3821461053f5780635ee8906d1461055257806365b21d14146105675780636f80886c14610594578063715018a6146105ca5780637248f579146105df57806379ee10b0146106015780637d4b1a5f146106195780638170aff01461062e5780638618e9d31461064e5780638c9a92a2146106815780638da5cb5b146106995780638f180305146106ae5780639abaf479146106c3578063a095f2b4146106f1578063b0118f4a14610681578063b035d6e114610711578063b7e44ba414610747578063bfbdef7e1461077a578063c4677c041461078f578063c864b70e146107a4578063cf1dd2b4146107c4578063cfdd1ce3146107e6578063d321fe291461081c578063e12c2d911461084f578063e1aac4201461087c578063e57384db14610891578063ed3ee1de146108ae578063f0e22d52146108c3578063f2fde38b146108d8578063f8b2cb4f146108f8575b600080fd5b34801561023f57600080fd5b5061025361024e366004612bcb565b61092e565b60405190151581526020015b60405180910390f35b34801561027457600080fd5b5061029e610283366004612bed565b6001600160a01b031660009081526014602052604090205490565b60405190815260200161025f565b3480156102b857600080fd5b506102c1610990565b60405161025f9190612c75565b3480156102da57600080fd5b5061029e6102e9366004612bed565b6001600160a01b031660009081526011602052604090205490565b34801561031057600080fd5b507f000000000000000000000000000000000000000000000000000000000000000061029e565b34801561034357600080fd5b5061029e610a22565b34801561035857600080fd5b5061036c610367366004612c88565b610a38565b005b34801561037a57600080fd5b507f000000000000000000000000000000000000000000000000000000000000000061029e565b3480156103ad57600080fd5b507f000000000000000000000000000000000000000000000000000000000000000061029e565b3480156103e057600080fd5b5061036c610d4d565b3480156103f557600080fd5b5061029e610404366004612bed565b6001600160a01b03166000908152600f602052604090205490565b34801561042b57600080fd5b5061043f61043a366004612c88565b610f13565b60405161025f9190612ca1565b34801561045857600080fd5b5061036c61100f565b34801561046d57600080fd5b507f000000000000000000000000000000000000000000000000000000000000000061029e565b3480156104a057600080fd5b5061036c611a06565b3480156104b557600080fd5b506104df6104c4366004612c88565b6000908152601260205260409020546001600160a01b031690565b6040516001600160a01b03909116815260200161025f565b34801561050357600080fd5b5061036c611acb565b34801561051857600080fd5b507f000000000000000000000000000000000000000000000000000000000000000061029e565b61036c61054d366004612db0565b611ad6565b34801561055e57600080fd5b5060165461029e565b34801561057357600080fd5b50610587610582366004612c88565b611cbc565b60405161025f9190612dec565b3480156105a057600080fd5b506104df6105af366004612c88565b6000908152600860205260409020546001600160a01b031690565b3480156105d657600080fd5b5061036c611dc9565b3480156105eb57600080fd5b506105f4611ddb565b60405161025f9190612e3a565b34801561060d57600080fd5b5060065460ff16610253565b34801561062557600080fd5b5060055461029e565b34801561063a57600080fd5b5061036c610649366004612c88565b611e4e565b34801561065a57600080fd5b507f000000000000000000000000000000000000000000000000000000000000000061029e565b34801561068d57600080fd5b5060035460ff16610253565b3480156106a557600080fd5b506104df611e58565b3480156106ba57600080fd5b5061029e611e67565b3480156106cf57600080fd5b506106e36106de366004612e91565b611e78565b60405161025f929190612ed9565b3480156106fd57600080fd5b5061036c61070c366004612ef4565b611f10565b34801561071d57600080fd5b5061029e61072c366004612bed565b6001600160a01b03166000908152600b602052604090205490565b34801561075357600080fd5b507f000000000000000000000000000000000000000000000000000000000000000061029e565b34801561078657600080fd5b5060045461029e565b34801561079b57600080fd5b5060155461029e565b3480156107b057600080fd5b5061036c6107bf366004612f46565b611f1b565b3480156107d057600080fd5b506107d9611f27565b60405161025f9190612f9e565b3480156107f257600080fd5b5061029e610801366004612bed565b6001600160a01b031660009081526009602052604090205490565b34801561082857600080fd5b507f000000000000000000000000000000000000000000000000000000000000000061029e565b34801561085b57600080fd5b5061086f61086a366004612bcb565b611f90565b60405161025f9190612fe8565b34801561088857600080fd5b506102c16120ad565b34801561089d57600080fd5b50600354610100900460ff16610253565b3480156108ba57600080fd5b506102536120bc565b3480156108cf57600080fd5b5061029e6120ee565b3480156108e457600080fd5b5061036c6108f3366004612bed565b6120ff565b34801561090457600080fd5b5061029e610913366004612bed565b6001600160a01b031660009081526017602052604090205490565b6000828152600860209081526040808320549051600d9261095b926001600160a01b03169186910161300f565b60408051601f198184030181529082905261097591613028565b9081526040519081900360200190205460ff16905092915050565b60606001805461099f90613044565b80601f01602080910402602001604051908101604052809291908181526020018280546109cb90613044565b8015610a185780601f106109ed57610100808354040283529160200191610a18565b820191906000526020600020905b8154815290600101906020018083116109fb57829003601f168201915b5050505050905090565b60006001600e54610a339190613095565b905090565b610a40612175565b7f00000000000000000000000000000000000000000000000000000000000000004211610a885760405162461bcd60e51b8152600401610a7f906130ac565b60405180910390fd5b7f00000000000000000000000000000000000000000000000000000000000000004210610ac75760405162461bcd60e51b8152600401610a7f906130dd565b60035460ff1615610b145760405162461bcd60e51b8152602060048201526017602482015276129d5919d95cc8185b1c9958591e481cd95b1958dd1959604a1b6044820152606401610a7f565b60035460ff16158015610b5457507f00000000000000000000000000000000000000000000000000000000000000006001600754610b529190613095565b105b15610be5576003805461ffff191660019081179091555b600754811015610be1576000818152600860209081526040808320546001600160a01b031683526017909152812080547f00000000000000000000000000000000000000000000000000000000000000009290610bc990849061310c565b90915550819050610bd981613124565b915050610b6b565b5050565b6003805461ffff1916610101179055600754600090610c0690600190613095565b610c109083613155565b905060015b7f00000000000000000000000000000000000000000000000000000000000000008111610d47576000600881610c4b848661310c565b815260208082019290925260409081016000908120546001600160a01b03168082526011909352205490915015610cca5781610c8681613169565b9250506001600754610c989190613095565b82610ca3858061310c565b610cad919061310c565b610cb890600161310c565b610cc29190613155565b925050610d35565b6001600754610cd99190613095565b82610ce4858061310c565b610cee919061310c565b610cf89190613155565b6001600160a01b0390911660008181526011602090815260408083208690558583526012909152902080546001600160a01b031916909117905591505b80610d3f81613124565b915050610c15565b50505b50565b336000908152600b6020526040902054610d965760405162461bcd60e51b815260206004820152600a602482015269139bc81c995c5d595cdd60b21b6044820152606401610a7f565b7f00000000000000000000000000000000000000000000000000000000000000004211610dfa5760405162461bcd60e51b8152602060048201526012602482015271151a5b59481a5cc81cdd1a5b1b081b19599d60721b6044820152606401610a7f565b336000908152600b6020908152604080832054815160608101835284815282518085018452858152818501908152818401869052828652600c855292909420845181546001600160a01b0319166001600160a01b03909116178155915180517f0000000000000000000000000000000000000000000000000000000000000000959294929392610e91926001850192910190612b32565b5060409182015160029190910155336000818152600b602052828120819055915184908381818185875af1925050503d8060008114610eec576040519150601f19603f3d011682016040523d82523d6000602084013e610ef1565b606091505b5050905080610d4757604051631d42c86760e21b815260040160405180910390fd5b610f40604051806060016040528060006001600160a01b0316815260200160608152602001600081525090565b6000828152600c602090815260409182902082516060810190935280546001600160a01b031683526001810180549192840191610f7c90613044565b80601f0160208091040260200160405190810160405280929190818152602001828054610fa890613044565b8015610ff55780601f10610fca57610100808354040283529160200191610ff5565b820191906000526020600020905b815481529060010190602001808311610fd857829003601f168201915b505050505081526020016002820154815250509050919050565b7f000000000000000000000000000000000000000000000000000000000000000042116110765760405162461bcd60e51b8152602060048201526015602482015274129d5919da5b99c81b9bdd08195b991959081e595d605a1b6044820152606401610a7f565b60065460ff16156110be5760405162461bcd60e51b8152602060048201526012602482015271105b1c9958591e48199d5b1b199a5b1b195960721b6044820152606401610a7f565b60035460ff1680156110d85750600354610100900460ff16155b156110ec576006805460ff19166001179055565b60035460ff1661117e576003805461ffff191660019081179091555b600754811015610d4a576000818152600860209081526040808320546001600160a01b031683526017909152812080547f0000000000000000000000000000000000000000000000000000000000000000929061116690849061310c565b9091555081905061117681613124565b915050611108565b6006805460ff191660019081179091555b7f00000000000000000000000000000000000000000000000000000000000000008111611278576001600e546111c59190613095565b6000828152601260209081526040808320546001600160a01b0316835260149091529020541415611266576040805180820190915281815260006020820181815260158054600181018255925291517f55f448fdea98c4d29eb340757ef0a66cd03dbb9538908a6a81d96026b71ec47560029092029182015590517f55f448fdea98c4d29eb340757ef0a66cd03dbb9538908a6a81d96026b71ec476909101555b8061127081613124565b91505061118f565b5060155461136957600060016007546112919190613095565b6112db7f00000000000000000000000000000000000000000000000000000000000000007f000000000000000000000000000000000000000000000000000000000000000061310c565b6112e59190613180565b905060015b600754811015610be1576000818152600860209081526040808320546001600160a01b031683526011909152902054611357576000818152600860209081526040808320546001600160a01b0316835260179091528120805484929061135190849061310c565b90915550505b8061136181613124565b9150506112ea565b60155460009061137a906064613194565b7f000000000000000000000000000000000000000000000000000000000000000060016007546113aa9190613095565b6113d4907f0000000000000000000000000000000000000000000000000000000000000000613194565b6113de9190613194565b6113e89190613180565b6015549091506000906113fb9083613194565b600160075461140a9190613095565b611434907f0000000000000000000000000000000000000000000000000000000000000000613194565b61143e9190613095565b905060005b60155481101561150d578260158281548110611461576114616131b3565b90600052602060002090600202016001018190555082601760006012600060158681548110611492576114926131b3565b906000526020600020906002020160000154815260200190815260200160002060009054906101000a90046001600160a01b03166001600160a01b03166001600160a01b0316815260200190815260200160002060008282546114f5919061310c565b9091555081905061150581613124565b915050611443565b5060015b600e548110156116105761154660027f0000000000000000000000000000000000000000000000000000000000000000613180565b60008281526010602052604090206003015411156115fe57600081815260106020526040812060020154600580549192909161158390849061310c565b90915550506040805180820190915281815260006020820181815260168054600181018255925291517fd833147d7dc355ba459fc788f669e58cfaf9dc25ddcd0702e87d69c7b512428960029092029182015590517fd833147d7dc355ba459fc788f669e58cfaf9dc25ddcd0702e87d69c7b512428a909101555b8061160881613124565b915050611511565b5060165461176257600060016007546116299190613095565b6116339083613180565b905060005b6015548110156116d9578160176000601260006015868154811061165e5761165e6131b3565b906000526020600020906002020160000154815260200190815260200160002060009054906101000a90046001600160a01b03166001600160a01b03166001600160a01b0316815260200190815260200160002060008282546116c1919061310c565b909155508190506116d181613124565b915050611638565b5060015b60075481101561175c576000818152600860209081526040808320546001600160a01b03168352601190915290205461174a576000818152600860209081526040808320546001600160a01b0316835260179091528120805484929061174490849061310c565b90915550505b8061175481613124565b9150506116dd565b50505050565b60008160055410611786578160055461177b9190613095565b905060009150611796565b6005546117939083613095565b91505b60005b6016548110156118b457600060106000601684815481106117bc576117bc6131b3565b9060005260206000209060020201600001548152602001908152602001600020600201549050600060055484836117f39190613194565b6117fd9190613180565b6118079083613095565b9050806016848154811061181d5761181d6131b3565b9060005260206000209060020201600101819055508060176000601060006016888154811061184e5761184e6131b3565b6000918252602080832060029092029091015483528281019390935260409182018120546001600160a01b031684529183019390935291018120805490919061189890849061310c565b92505081905550505080806118ac90613124565b915050611799565b508115610d4757600060016007546118cc9190613095565b6118d69084613180565b905060005b60155481101561197c5781601760006012600060158681548110611901576119016131b3565b906000526020600020906002020160000154815260200190815260200160002060009054906101000a90046001600160a01b03166001600160a01b03166001600160a01b031681526020019081526020016000206000828254611964919061310c565b9091555081905061197481613124565b9150506118db565b5060015b6007548110156119ff576000818152600860209081526040808320546001600160a01b0316835260119091529020546119ed576000818152600860209081526040808320546001600160a01b031683526017909152812080548492906119e790849061310c565b90915550505b806119f781613124565b915050611980565b5050505050565b33600090815260176020526040902054611a4f5760405162461bcd60e51b815260206004820152600a6024820152694e6f2062616c616e636560b01b6044820152606401610a7f565b33600081815260176020526040808220805490839055905190929083908381818185875af1925050503d8060008114611aa4576040519150601f19603f3d011682016040523d82523d6000602084013e611aa9565b606091505b5050905080610be157604051631d42c86760e21b815260040160405180910390fd5b611ad4336121d4565b565b7f00000000000000000000000000000000000000000000000000000000000000003414611b415760405162461bcd60e51b8152602060048201526019602482015278105b5bdd5b9d081cd95b9d081a5cdb89dd0818dbdc9c9958dd603a1b6044820152606401610a7f565b7f00000000000000000000000000000000000000000000000000000000000000004210611b805760405162461bcd60e51b8152600401610a7f906131c9565b3360009081526009602052604090205415611bd55760405162461bcd60e51b81526020600482015260156024820152744d656d62657220616c72656164792065786973747360581b6044820152606401610a7f565b336000908152600b602052604090205415611c2b5760405162461bcd60e51b81526020600482015260166024820152755265717565737420616c72656164792065786973747360501b6044820152606401610a7f565b6040805160608101825233815260208082018481526000838501819052600a548152600c835293909320825181546001600160a01b0319166001600160a01b0390911617815592518051929392611c889260018501920190612b32565b50604091820151600290910155600a8054336000908152600b60205292832081905591611cb483613124565b919050555050565b611cf0604051806080016040528060006001600160a01b031681526020016060815260200160008152602001600081525090565b60008281526010602090815260409182902082516080810190935280546001600160a01b031683526001810180549192840191611d2c90613044565b80601f0160208091040260200160405190810160405280929190818152602001828054611d5890613044565b8015611da55780601f10611d7a57610100808354040283529160200191611da5565b820191906000526020600020905b815481529060010190602001808311611d8857829003601f168201915b50505050508152602001600282015481526020016003820154815250509050919050565b611dd1612175565b611ad460006123e0565b60606015805480602002602001604051908101604052809291908181526020016000905b82821015611e4557838290600052602060002090600202016040518060400160405290816000820154815260200160018201548152505081526020019060010190611dff565b50505050905090565b610d4a3382612430565b6000546001600160a01b031690565b60006001600754610a339190613095565b6000606060008060008086806020019051810190611e96919061320b565b93509350935093508360001415611eb557611eb0336121d4565b611ef1565b8360011415611ec857611eb03384612430565b8360021415611edc57611eb03383856125ca565b8360031415611ef157611ef1338483856127f9565b6001955060405180602001604052806000815250945050505050915091565b610be13383836125ca565b610d47338484846127f9565b606060168054806020026020016040519081016040528092919081815260200160009082821015611e4557838290600052602060002090600202016040518060400160405290816000820154815260200160018201548152505081526020019060010190611dff565b604080518082019091526000815260606020820152600083815260126020908152604091829020549151601392611fd5926001600160a01b039091169186910161300f565b60408051601f1981840301815290829052611fef91613028565b908152604080519182900360209081018320838301909252815460ff16151583526001820180549184019161202390613044565b80601f016020809104026020016040519081016040528092919081815260200182805461204f90613044565b801561209c5780601f106120715761010080835404028352916020019161209c565b820191906000526020600020905b81548152906001019060200180831161207f57829003601f168201915b505050505081525050905092915050565b60606002805461099f90613044565b60007f00000000000000000000000000000000000000000000000000000000000000006120e7611e67565b1015905090565b60006001600a54610a339190613095565b612107612175565b6001600160a01b03811661216c5760405162461bcd60e51b815260206004820152602660248201527f4f776e61626c653a206e6577206f776e657220697320746865207a65726f206160448201526564647265737360d01b6064820152608401610a7f565b610d4a816123e0565b3361217e611e58565b6001600160a01b031614611ad45760405162461bcd60e51b815260206004820181905260248201527f4f776e61626c653a2063616c6c6572206973206e6f7420746865206f776e65726044820152606401610a7f565b7f000000000000000000000000000000000000000000000000000000000000000042106122135760405162461bcd60e51b8152600401610a7f906131c9565b6001600160a01b0381166000908152600960205260409020541561226c5760405162461bcd60e51b815260206004820152601060248201526f20b63932b0b23c90309036b2b6b132b960811b6044820152606401610a7f565b600160075461227b9190613095565b6001600160a01b0382166000908152600b60209081526040808320548352600c909152902060020154146122fd5760405162461bcd60e51b8152602060048201526024808201527f4e6f7420616c6c206d656d6265727320616363657074656420746865207265716044820152631d595cdd60e21b6064820152608401610a7f565b6001600160a01b038181166000908152600b6020908152604080832054815160608101835284815282518085018452858152818501908152818401869052828652600c855292909420845181546001600160a01b03191696169590951785559051805191949261237592600185019290910190612b32565b506040918201516002909101556001600160a01b0383166000818152600b60209081528382208290556007805483526008825284832080546001600160a01b03191685179055805493835260099091529281208290559091906123d783613124565b91905055505050565b600080546001600160a01b038381166001600160a01b0319831681178455604051919092169283917f8be0079c531659141344cd1fd0a4f28419497f9722a3daafe3b4186f6b6457e09190a35050565b6001600160a01b0382166000908152600960205260409020546124655760405162461bcd60e51b8152600401610a7f906132aa565b6000818152600c60205260409020546001600160a01b03166124c25760405162461bcd60e51b815260206004820152601660248201527514995c5d595cdd08191bd95cc81b9bdd08195e1a5cdd60521b6044820152606401610a7f565b600d82826040516020016124d792919061300f565b60408051601f19818403018152908290526124f191613028565b9081526040519081900360200190205460ff16156125445760405162461bcd60e51b815260206004820152601060248201526f105b1c9958591e481858d8d95c1d195960821b6044820152606401610a7f565b6001600d838360405160200161255b92919061300f565b60408051601f198184030181529082905261257591613028565b908152602001604051809103902060006101000a81548160ff0219169083151502179055506001600c600083815260200190815260200160002060020160008282546125c1919061310c565b90915550505050565b7f000000000000000000000000000000000000000000000000000000000000000042116126395760405162461bcd60e51b815260206004820152601d60248201527f436f6e7472616374206973206e6f742076616c696420616e796d6f72650000006044820152606401610a7f565b7f000000000000000000000000000000000000000000000000000000000000000042106126a25760405162461bcd60e51b8152602060048201526017602482015276129d5919da5b99c8185b1c9958591e481cdd185c9d1959604a1b6044820152606401610a7f565b6001600160a01b0383166000908152600960205260409020546126d75760405162461bcd60e51b8152600401610a7f906132aa565b6001600160a01b0383166000908152600f6020526040902054156127385760405162461bcd60e51b8152602060048201526018602482015277496e737572616e636520616c72656164792065786973747360401b6044820152606401610a7f565b600e546001600160a01b038481166000818152600f6020908152604080832086905580516080810182529384528382018881528482018890526060850184905295835260108252909120825181546001600160a01b03191694169390931783559251805191936127b092600185019290910190612b32565b50604082015181600201556060820151816003015590505080600460008282546127da919061310c565b9091555050600e80549060006127ef83613124565b9190505550505050565b7f000000000000000000000000000000000000000000000000000000000000000042116128385760405162461bcd60e51b8152600401610a7f906130ac565b7f000000000000000000000000000000000000000000000000000000000000000042106128775760405162461bcd60e51b8152600401610a7f906130dd565b6001600160a01b0384166000908152601160205260409020546128ca5760405162461bcd60e51b815260206004820152600b60248201526a4e6f742061206a7564676560a81b6044820152606401610a7f565b6000838152601060205260409020546001600160a01b03166129295760405162461bcd60e51b8152602060048201526018602482015277125b9cdd5c985b98d948191bd95cc81b9bdd08195e1a5cdd60421b6044820152606401610a7f565b6013848460405160200161293e92919061300f565b60408051601f198184030181529082905261295891613028565b9081526040519081900360200190205460ff161580156129785750805115155b806129c657506013848460405160200161299392919061300f565b60408051601f19818403018152908290526129ad91613028565b9081526040519081900360200190205460ff1615156001145b15612a055760405162461bcd60e51b815260206004820152600f60248201526e105b1c9958591e481d5c19185d1959608a1b6044820152606401610a7f565b81612a4e578051612a4e5760405162461bcd60e51b8152602060048201526013602482015272526561736f6e2075726920697320656d70747960681b6044820152606401610a7f565b604051806040016040528083151581526020018281525060138585604051602001612a7a92919061300f565b60408051601f1981840301815290829052612a9491613028565b908152604051602091819003820190208251815460ff19169015151781558282015180519192612acc92600185019290910190612b32565b509050508115612afe576000838152601060205260408120600301805460019290612af890849061310c565b90915550505b6001600160a01b0384166000908152601460205260408120805460019290612b2790849061310c565b909155505050505050565b828054612b3e90613044565b90600052602060002090601f016020900481019282612b605760008555612ba6565b82601f10612b7957805160ff1916838001178555612ba6565b82800160010185558215612ba6579182015b82811115612ba6578251825591602001919060010190612b8b565b50612bb2929150612bb6565b5090565b5b80821115612bb25760008155600101612bb7565b60008060408385031215612bde57600080fd5b50508035926020909101359150565b600060208284031215612bff57600080fd5b81356001600160a01b0381168114612c1657600080fd5b9392505050565b60005b83811015612c38578181015183820152602001612c20565b8381111561175c5750506000910152565b60008151808452612c61816020860160208601612c1d565b601f01601f19169290920160200192915050565b602081526000612c166020830184612c49565b600060208284031215612c9a57600080fd5b5035919050565b602080825282516001600160a01b03168282015282015160606040830152600090612ccf6080840182612c49565b9050604084015160608401528091505092915050565b634e487b7160e01b600052604160045260246000fd5b604051601f8201601f191681016001600160401b0381118282101715612d2357612d23612ce5565b604052919050565b60006001600160401b03821115612d4457612d44612ce5565b50601f01601f191660200190565b6000612d65612d6084612d2b565b612cfb565b9050828152838383011115612d7957600080fd5b828260208301376000602084830101529392505050565b600082601f830112612da157600080fd5b612c1683833560208501612d52565b600060208284031215612dc257600080fd5b81356001600160401b03811115612dd857600080fd5b612de484828501612d90565b949350505050565b602080825282516001600160a01b03168282015282015160806040830152600090612e1a60a0840182612c49565b905060408401516060840152606084015160808401528091505092915050565b602080825282518282018190526000919060409081850190868401855b82811015612e8457612e7484835180518252602090810151910152565b9284019290850190600101612e57565b5091979650505050505050565b600060208284031215612ea357600080fd5b81356001600160401b03811115612eb957600080fd5b8201601f81018413612eca57600080fd5b612de484823560208401612d52565b8215158152604060208201526000612de46040830184612c49565b60008060408385031215612f0757600080fd5b82356001600160401b03811115612f1d57600080fd5b612f2985828601612d90565b95602094909401359450505050565b8015158114610d4a57600080fd5b600080600060608486031215612f5b57600080fd5b833592506020840135612f6d81612f38565b915060408401356001600160401b03811115612f8857600080fd5b612f9486828701612d90565b9150509250925092565b602080825282518282018190526000919060409081850190868401855b82811015612e8457612fd884835180518252602090810151910152565b9284019290850190600101612fbb565b6020815281511515602082015260006020830151604080840152612de46060840182612c49565b6001600160a01b03929092168252602082015260400190565b6000825161303a818460208701612c1d565b9190910192915050565b600181811c9082168061305857607f821691505b6020821081141561307957634e487b7160e01b600052602260045260246000fd5b50919050565b634e487b7160e01b600052601160045260246000fd5b6000828210156130a7576130a761307f565b500390565b602080825260179082015276129d5919da5b99c81b9bdd081cdd185c9d1959081e595d604a1b604082015260600190565b602080825260159082015274129d5919da5b99c8185b1c9958591e48195b991959605a1b604082015260600190565b6000821982111561311f5761311f61307f565b500190565b60006000198214156131385761313861307f565b5060010190565b634e487b7160e01b600052601260045260246000fd5b6000826131645761316461313f565b500690565b6000816131785761317861307f565b506000190190565b60008261318f5761318f61313f565b500490565b60008160001904831182151516156131ae576131ae61307f565b500290565b634e487b7160e01b600052603260045260246000fd5b60208082526022908201527f416464696e67206d656d626572206973206e6f742076616c696420616e796d6f604082015261726560f01b606082015260800190565b6000806000806080858703121561322157600080fd5b84516020860151604087015191955093506001600160401b0381111561324657600080fd5b8501601f8101871361325757600080fd5b8051613265612d6082612d2b565b81815288602083850101111561327a57600080fd5b61328b826020830160208601612c1d565b809450505050606085015161329f81612f38565b939692955090935050565b6020808252600c908201526b2737ba10309036b2b6b132b960a11b60408201526060019056fea26469706673582212205eca0061a62732831a0d50568ee44c5d5211d55e6fcfec935de748d729f36c4e64736f6c634300080c00334275726679496e737572616e63653a206a75646765734c656e6774682073686f4275726679496e737572616e63653a2070657263656e74446976696465496e74a26469706673582212202aa4aafd18df2eea3755818eafde76592ea7195c51b569b56b4184d76034f81864736f6c634300080c0033",
  "devdoc": {
    "kind": "dev",
    "methods": {
      "performUpkeep(bytes)": {
        "details": "The input to this method should not be trusted, and the caller of the method should not even be restricted to any single registry. Anyone should be able call it, and the input should be validated, there is no guarantee that the data passed in is the performData returned from checkUpkeep. This could happen due to malicious keepers, racing keepers, or simply a state change while the performUpkeep transaction is waiting for confirmation. Always validate the data passed in.",
        "params": {
          "performData": "is the data which was passed back from the checkData simulation. If it is encoded, it can easily be decoded into other types by calling `abi.decode`. This data should not be trusted, and should be validated against the contract's current state."
        }
      }
    },
    "version": 1
  },
  "userdoc": {
    "kind": "user",
    "methods": {
      "performUpkeep(bytes)": {
        "notice": "method that is actually executed by the keepers, via the registry. The data returned by the checkUpkeep simulation will be passed into this method to actually be executed."
      }
    },
    "version": 1
  },
  "storageLayout": {
    "storage": [
      {
        "astId": 393,
        "contract": "contracts/Burfy.sol:Burfy",
        "label": "anycallcontract",
        "offset": 0,
        "slot": "0",
        "type": "t_address"
      },
      {
        "astId": 395,
        "contract": "contracts/Burfy.sol:Burfy",
        "label": "anycallExecutor",
        "offset": 0,
        "slot": "1",
        "type": "t_address"
      },
      {
        "astId": 397,
        "contract": "contracts/Burfy.sol:Burfy",
        "label": "owneraddress",
        "offset": 0,
        "slot": "2",
        "type": "t_address"
      },
      {
        "astId": 399,
        "contract": "contracts/Burfy.sol:Burfy",
        "label": "destchain",
        "offset": 0,
        "slot": "3",
        "type": "t_uint256"
      },
      {
        "astId": 418,
        "contract": "contracts/Burfy.sol:Burfy",
        "label": "s_requestIdToContractAddress",
        "offset": 0,
        "slot": "4",
        "type": "t_mapping(t_uint256,t_address)"
      },
      {
        "astId": 422,
        "contract": "contracts/Burfy.sol:Burfy",
        "label": "s_contractInfos",
        "offset": 0,
        "slot": "5",
        "type": "t_array(t_struct(ContractInfo)391_storage)dyn_storage"
      }
    ],
    "types": {
      "t_address": {
        "encoding": "inplace",
        "label": "address",
        "numberOfBytes": "20"
      },
      "t_array(t_struct(ContractInfo)391_storage)dyn_storage": {
        "base": "t_struct(ContractInfo)391_storage",
        "encoding": "dynamic_array",
        "label": "struct Burfy.ContractInfo[]",
        "numberOfBytes": "32"
      },
      "t_mapping(t_uint256,t_address)": {
        "encoding": "mapping",
        "key": "t_uint256",
        "label": "mapping(uint256 => address)",
        "numberOfBytes": "32",
        "value": "t_address"
      },
      "t_struct(ContractInfo)391_storage": {
        "encoding": "inplace",
        "label": "struct Burfy.ContractInfo",
        "members": [
          {
            "astId": 386,
            "contract": "contracts/Burfy.sol:Burfy",
            "label": "contractAddress",
            "offset": 0,
            "slot": "0",
            "type": "t_address"
          },
          {
            "astId": 388,
            "contract": "contracts/Burfy.sol:Burfy",
            "label": "judgingStartTime",
            "offset": 0,
            "slot": "1",
            "type": "t_uint256"
          },
          {
            "astId": 390,
            "contract": "contracts/Burfy.sol:Burfy",
            "label": "judgingEndTime",
            "offset": 0,
            "slot": "2",
            "type": "t_uint256"
          }
        ],
        "numberOfBytes": "96"
      },
      "t_uint256": {
        "encoding": "inplace",
        "label": "uint256",
        "numberOfBytes": "32"
      }
    }
  }
}